{"contracts/SingleSwap.sol":{"SwapExamples":{"abi":[{"inputs":[{"internalType":"contract ISwapRouter","name":"_swapRouter","type":"address"}],"stateMutability":"nonpayable","type":"constructor"},{"inputs":[],"name":"TETHER","outputs":[{"internalType":"address","name":"","type":"address"}],"stateMutability":"view","type":"function"},{"inputs":[],"name":"USDC","outputs":[{"internalType":"address","name":"","type":"address"}],"stateMutability":"view","type":"function"},{"inputs":[],"name":"WETH9","outputs":[{"internalType":"address","name":"","type":"address"}],"stateMutability":"view","type":"function"},{"inputs":[],"name":"poolFee","outputs":[{"internalType":"uint24","name":"","type":"uint24"}],"stateMutability":"view","type":"function"},{"inputs":[{"internalType":"uint256","name":"amountIn","type":"uint256"}],"name":"swapExactInputSingle","outputs":[{"internalType":"uint256","name":"amountOut","type":"uint256"}],"stateMutability":"nonpayable","type":"function"},{"inputs":[{"internalType":"uint256","name":"amountOut","type":"uint256"},{"internalType":"uint256","name":"amountInMaximum","type":"uint256"}],"name":"swapExactOutputSingle","outputs":[{"internalType":"uint256","name":"amountIn","type":"uint256"}],"stateMutability":"nonpayable","type":"function"},{"inputs":[],"name":"swapRouter","outputs":[{"internalType":"contract ISwapRouter","name":"","type":"address"}],"stateMutability":"view","type":"function"}],"evm":{"bytecode":{"linkReferences":{},"object":"60a060405234801561001057600080fd5b50604051610ddf380380610ddf83398101604081905261002f91610080565b6001600160a01b03166080526100a9565b60006001600160a01b0382165b92915050565b600061004d82610040565b61006781610053565b811461007257600080fd5b50565b805161004d8161005e565b60006020828403121561009557610095600080fd5b60006100a18484610075565b949350505050565b608051610cf86100e760003960008181610124015281816101a20152818161025601528181610333015281816103e301526104940152610cf86000f3fe608060405234801561001057600080fd5b506004361061007d5760003560e01c806378e7e3d11161005b57806378e7e3d1146100e957806389a3027114610104578063c31c9c071461011f578063c4b69a181461015357600080fd5b8063089fe6aa146100825780634aa4a4fc146100a157806373bd43ad146100c9575b600080fd5b61008b6101f481565b60405161009891906108d6565b60405180910390f35b6100bc73c02aaa39b223fe8d0a0e5c4f27ead9083c756cc281565b6040516100989190610911565b6100dc6100d736600461093a565b610166565b6040516100989190610969565b6100bc730165878a594ca255338adfa4d48449f69242eb8f81565b6100bc73a513e6e4b8f2a923d98304ec87f64353c4d5c85381565b6101467f000000000000000000000000000000000000000000000000000000000000000081565b6040516100989190610996565b6100dc6101613660046109a4565b6102f7565b6000610188730165878a594ca255338adfa4d48449f69242eb8f3330856104e9565b6101c7730165878a594ca255338adfa4d48449f69242eb8f7f00000000000000000000000000000000000000000000000000000000000000008461063e565b6040805161010081018252730165878a594ca255338adfa4d48449f69242eb8f815273a513e6e4b8f2a923d98304ec87f64353c4d5c85360208201526101f491810191909152336060820152600090608081016102254260c8610a10565b815260200184815260200160018152602001600a73ffffffffffffffffffffffffffffffffffffffff1681525090507f000000000000000000000000000000000000000000000000000000000000000073ffffffffffffffffffffffffffffffffffffffff1663414bf389826040518263ffffffff1660e01b81526004016102ad9190610adc565b6020604051808303816000875af11580156102cc573d6000803e3d6000fd5b505050506040513d601f19601f820116820180604052508101906102f09190610af6565b9392505050565b6000610319730165878a594ca255338adfa4d48449f69242eb8f3330856104e9565b610358730165878a594ca255338adfa4d48449f69242eb8f7f00000000000000000000000000000000000000000000000000000000000000008461063e565b6040805161010081018252730165878a594ca255338adfa4d48449f69242eb8f815273c02aaa39b223fe8d0a0e5c4f27ead9083c756cc260208201526101f48183015233606082015242608082015260a0810185905260c08101849052600060e082015290517fdb3e21980000000000000000000000000000000000000000000000000000000081527f000000000000000000000000000000000000000000000000000000000000000073ffffffffffffffffffffffffffffffffffffffff169063db3e21989061042d908490600401610adc565b6020604051808303816000875af115801561044c573d6000803e3d6000fd5b505050506040513d601f19601f820116820180604052508101906104709190610af6565b9150828210156104e2576104ba730165878a594ca255338adfa4d48449f69242eb8f7f0000000000000000000000000000000000000000000000000000000000000000600061063e565b6104e2730165878a594ca255338adfa4d48449f69242eb8f336104dd8587610b17565b610787565b5092915050565b6000808573ffffffffffffffffffffffffffffffffffffffff166323b872dd60e01b86868660405160240161052093929190610b2a565b60408051601f198184030181529181526020820180517bffffffffffffffffffffffffffffffffffffffffffffffffffffffff167fffffffff0000000000000000000000000000000000000000000000000000000090941693909317909252905161058b9190610b98565b6000604051808303816000865af19150503d80600081146105c8576040519150601f19603f3d011682016040523d82523d6000602084013e6105cd565b606091505b50915091508180156105f75750805115806105f75750808060200190518101906105f79190610bb7565b610636576040517f08c379a000000000000000000000000000000000000000000000000000000000815260040161062d90610c0f565b60405180910390fd5b505050505050565b6000808473ffffffffffffffffffffffffffffffffffffffff1663095ea7b360e01b8585604051602401610673929190610c1f565b60408051601f198184030181529181526020820180517bffffffffffffffffffffffffffffffffffffffffffffffffffffffff167fffffffff000000000000000000000000000000000000000000000000000000009094169390931790925290516106de9190610b98565b6000604051808303816000865af19150503d806000811461071b576040519150601f19603f3d011682016040523d82523d6000602084013e610720565b606091505b509150915081801561074a57508051158061074a57508080602001905181019061074a9190610bb7565b610780576040517f08c379a000000000000000000000000000000000000000000000000000000000815260040161062d90610c6e565b5050505050565b6000808473ffffffffffffffffffffffffffffffffffffffff1663a9059cbb60e01b85856040516024016107bc929190610c1f565b60408051601f198184030181529181526020820180517bffffffffffffffffffffffffffffffffffffffffffffffffffffffff167fffffffff000000000000000000000000000000000000000000000000000000009094169390931790925290516108279190610b98565b6000604051808303816000865af19150503d8060008114610864576040519150601f19603f3d011682016040523d82523d6000602084013e610869565b606091505b50915091508180156108935750805115806108935750808060200190518101906108939190610bb7565b610780576040517f08c379a000000000000000000000000000000000000000000000000000000000815260040161062d90610cb2565b62ffffff81165b82525050565b602081016108e482846108c9565b92915050565b600073ffffffffffffffffffffffffffffffffffffffff82166108e4565b6108d0816108ea565b602081016108e48284610908565b805b811461092c57600080fd5b50565b80356108e48161091f565b60006020828403121561094f5761094f600080fd5b600061095b848461092f565b949350505050565b806108d0565b602081016108e48284610963565b60006108e4826108ea565b60006108e482610977565b6108d081610982565b602081016108e4828461098d565b600080604083850312156109ba576109ba600080fd5b60006109c6858561092f565b92505060206109d78582860161092f565b9150509250929050565b7f4e487b7100000000000000000000000000000000000000000000000000000000600052601160045260246000fd5b808201808211156108e4576108e46109e1565b73ffffffffffffffffffffffffffffffffffffffff81166108d0565b8051610100830190610a518482610908565b506020820151610a646020850182610908565b506040820151610a7760408501826108c9565b506060820151610a8a6060850182610908565b506080820151610a9d6080850182610963565b5060a0820151610ab060a0850182610963565b5060c0820151610ac360c0850182610963565b5060e0820151610ad660e0850182610a23565b50505050565b61010081016108e48284610a3f565b80516108e48161091f565b600060208284031215610b0b57610b0b600080fd5b600061095b8484610aeb565b818103818111156108e4576108e46109e1565b60608101610b388286610908565b610b456020830185610908565b61095b6040830184610963565b60005b83811015610b6d578181015183820152602001610b55565b50506000910152565b6000610b80825190565b610b8e818560208601610b52565b9290920192915050565b60006102f08284610b76565b801515610921565b80516108e481610ba4565b600060208284031215610bcc57610bcc600080fd5b600061095b8484610bac565b600381526000602082017f5354460000000000000000000000000000000000000000000000000000000000815291505b5060200190565b602080825281016108e481610bd8565b60408101610c2d8285610908565b6102f06020830184610963565b600281526000602082017f534100000000000000000000000000000000000000000000000000000000000081529150610c08565b602080825281016108e481610c3a565b600281526000602082017f535400000000000000000000000000000000000000000000000000000000000081529150610c08565b602080825281016108e481610c7e56fea264697066735822122087bc2f3232fa70f27049cb36106c2174c961d921162803409d2c80322bc3ec9e64736f6c63430008110033","opcodes":"PUSH1 0xA0 PUSH1 0x40 MSTORE CALLVALUE DUP1 ISZERO PUSH2 0x10 JUMPI PUSH1 0x0 DUP1 REVERT JUMPDEST POP PUSH1 0x40 MLOAD PUSH2 0xDDF CODESIZE SUB DUP1 PUSH2 0xDDF DUP4 CODECOPY DUP2 ADD PUSH1 0x40 DUP2 SWAP1 MSTORE PUSH2 0x2F SWAP2 PUSH2 0x80 JUMP JUMPDEST PUSH1 0x1 PUSH1 0x1 PUSH1 0xA0 SHL SUB AND PUSH1 0x80 MSTORE PUSH2 0xA9 JUMP JUMPDEST PUSH1 0x0 PUSH1 0x1 PUSH1 0x1 PUSH1 0xA0 SHL SUB DUP3 AND JUMPDEST SWAP3 SWAP2 POP POP JUMP JUMPDEST PUSH1 0x0 PUSH2 0x4D DUP3 PUSH2 0x40 JUMP JUMPDEST PUSH2 0x67 DUP2 PUSH2 0x53 JUMP JUMPDEST DUP2 EQ PUSH2 0x72 JUMPI PUSH1 0x0 DUP1 REVERT JUMPDEST POP JUMP JUMPDEST DUP1 MLOAD PUSH2 0x4D DUP2 PUSH2 0x5E JUMP JUMPDEST PUSH1 0x0 PUSH1 0x20 DUP3 DUP5 SUB SLT ISZERO PUSH2 0x95 JUMPI PUSH2 0x95 PUSH1 0x0 DUP1 REVERT JUMPDEST PUSH1 0x0 PUSH2 0xA1 DUP5 DUP5 PUSH2 0x75 JUMP JUMPDEST SWAP5 SWAP4 POP POP POP POP JUMP JUMPDEST PUSH1 0x80 MLOAD PUSH2 0xCF8 PUSH2 0xE7 PUSH1 0x0 CODECOPY PUSH1 0x0 DUP2 DUP2 PUSH2 0x124 ADD MSTORE DUP2 DUP2 PUSH2 0x1A2 ADD MSTORE DUP2 DUP2 PUSH2 0x256 ADD MSTORE DUP2 DUP2 PUSH2 0x333 ADD MSTORE DUP2 DUP2 PUSH2 0x3E3 ADD MSTORE PUSH2 0x494 ADD MSTORE PUSH2 0xCF8 PUSH1 0x0 RETURN INVALID PUSH1 0x80 PUSH1 0x40 MSTORE CALLVALUE DUP1 ISZERO PUSH2 0x10 JUMPI PUSH1 0x0 DUP1 REVERT JUMPDEST POP PUSH1 0x4 CALLDATASIZE LT PUSH2 0x7D JUMPI PUSH1 0x0 CALLDATALOAD PUSH1 0xE0 SHR DUP1 PUSH4 0x78E7E3D1 GT PUSH2 0x5B JUMPI DUP1 PUSH4 0x78E7E3D1 EQ PUSH2 0xE9 JUMPI DUP1 PUSH4 0x89A30271 EQ PUSH2 0x104 JUMPI DUP1 PUSH4 0xC31C9C07 EQ PUSH2 0x11F JUMPI DUP1 PUSH4 0xC4B69A18 EQ PUSH2 0x153 JUMPI PUSH1 0x0 DUP1 REVERT JUMPDEST DUP1 PUSH4 0x89FE6AA EQ PUSH2 0x82 JUMPI DUP1 PUSH4 0x4AA4A4FC EQ PUSH2 0xA1 JUMPI DUP1 PUSH4 0x73BD43AD EQ PUSH2 0xC9 JUMPI JUMPDEST PUSH1 0x0 DUP1 REVERT JUMPDEST PUSH2 0x8B PUSH2 0x1F4 DUP2 JUMP JUMPDEST PUSH1 0x40 MLOAD PUSH2 0x98 SWAP2 SWAP1 PUSH2 0x8D6 JUMP JUMPDEST PUSH1 0x40 MLOAD DUP1 SWAP2 SUB SWAP1 RETURN JUMPDEST PUSH2 0xBC PUSH20 0xC02AAA39B223FE8D0A0E5C4F27EAD9083C756CC2 DUP2 JUMP JUMPDEST PUSH1 0x40 MLOAD PUSH2 0x98 SWAP2 SWAP1 PUSH2 0x911 JUMP JUMPDEST PUSH2 0xDC PUSH2 0xD7 CALLDATASIZE PUSH1 0x4 PUSH2 0x93A JUMP JUMPDEST PUSH2 0x166 JUMP JUMPDEST PUSH1 0x40 MLOAD PUSH2 0x98 SWAP2 SWAP1 PUSH2 0x969 JUMP JUMPDEST PUSH2 0xBC PUSH20 0x165878A594CA255338ADFA4D48449F69242EB8F DUP2 JUMP JUMPDEST PUSH2 0xBC PUSH20 0xA513E6E4B8F2A923D98304EC87F64353C4D5C853 DUP2 JUMP JUMPDEST PUSH2 0x146 PUSH32 0x0 DUP2 JUMP JUMPDEST PUSH1 0x40 MLOAD PUSH2 0x98 SWAP2 SWAP1 PUSH2 0x996 JUMP JUMPDEST PUSH2 0xDC PUSH2 0x161 CALLDATASIZE PUSH1 0x4 PUSH2 0x9A4 JUMP JUMPDEST PUSH2 0x2F7 JUMP JUMPDEST PUSH1 0x0 PUSH2 0x188 PUSH20 0x165878A594CA255338ADFA4D48449F69242EB8F CALLER ADDRESS DUP6 PUSH2 0x4E9 JUMP JUMPDEST PUSH2 0x1C7 PUSH20 0x165878A594CA255338ADFA4D48449F69242EB8F PUSH32 0x0 DUP5 PUSH2 0x63E JUMP JUMPDEST PUSH1 0x40 DUP1 MLOAD PUSH2 0x100 DUP2 ADD DUP3 MSTORE PUSH20 0x165878A594CA255338ADFA4D48449F69242EB8F DUP2 MSTORE PUSH20 0xA513E6E4B8F2A923D98304EC87F64353C4D5C853 PUSH1 0x20 DUP3 ADD MSTORE PUSH2 0x1F4 SWAP2 DUP2 ADD SWAP2 SWAP1 SWAP2 MSTORE CALLER PUSH1 0x60 DUP3 ADD MSTORE PUSH1 0x0 SWAP1 PUSH1 0x80 DUP2 ADD PUSH2 0x225 TIMESTAMP PUSH1 0xC8 PUSH2 0xA10 JUMP JUMPDEST DUP2 MSTORE PUSH1 0x20 ADD DUP5 DUP2 MSTORE PUSH1 0x20 ADD PUSH1 0x1 DUP2 MSTORE PUSH1 0x20 ADD PUSH1 0xA PUSH20 0xFFFFFFFFFFFFFFFFFFFFFFFFFFFFFFFFFFFFFFFF AND DUP2 MSTORE POP SWAP1 POP PUSH32 0x0 PUSH20 0xFFFFFFFFFFFFFFFFFFFFFFFFFFFFFFFFFFFFFFFF AND PUSH4 0x414BF389 DUP3 PUSH1 0x40 MLOAD DUP3 PUSH4 0xFFFFFFFF AND PUSH1 0xE0 SHL DUP2 MSTORE PUSH1 0x4 ADD PUSH2 0x2AD SWAP2 SWAP1 PUSH2 0xADC JUMP JUMPDEST PUSH1 0x20 PUSH1 0x40 MLOAD DUP1 DUP4 SUB DUP2 PUSH1 0x0 DUP8 GAS CALL ISZERO DUP1 ISZERO PUSH2 0x2CC JUMPI RETURNDATASIZE PUSH1 0x0 DUP1 RETURNDATACOPY RETURNDATASIZE PUSH1 0x0 REVERT JUMPDEST POP POP POP POP PUSH1 0x40 MLOAD RETURNDATASIZE PUSH1 0x1F NOT PUSH1 0x1F DUP3 ADD AND DUP3 ADD DUP1 PUSH1 0x40 MSTORE POP DUP2 ADD SWAP1 PUSH2 0x2F0 SWAP2 SWAP1 PUSH2 0xAF6 JUMP JUMPDEST SWAP4 SWAP3 POP POP POP JUMP JUMPDEST PUSH1 0x0 PUSH2 0x319 PUSH20 0x165878A594CA255338ADFA4D48449F69242EB8F CALLER ADDRESS DUP6 PUSH2 0x4E9 JUMP JUMPDEST PUSH2 0x358 PUSH20 0x165878A594CA255338ADFA4D48449F69242EB8F PUSH32 0x0 DUP5 PUSH2 0x63E JUMP JUMPDEST PUSH1 0x40 DUP1 MLOAD PUSH2 0x100 DUP2 ADD DUP3 MSTORE PUSH20 0x165878A594CA255338ADFA4D48449F69242EB8F DUP2 MSTORE PUSH20 0xC02AAA39B223FE8D0A0E5C4F27EAD9083C756CC2 PUSH1 0x20 DUP3 ADD MSTORE PUSH2 0x1F4 DUP2 DUP4 ADD MSTORE CALLER PUSH1 0x60 DUP3 ADD MSTORE TIMESTAMP PUSH1 0x80 DUP3 ADD MSTORE PUSH1 0xA0 DUP2 ADD DUP6 SWAP1 MSTORE PUSH1 0xC0 DUP2 ADD DUP5 SWAP1 MSTORE PUSH1 0x0 PUSH1 0xE0 DUP3 ADD MSTORE SWAP1 MLOAD PUSH32 0xDB3E219800000000000000000000000000000000000000000000000000000000 DUP2 MSTORE PUSH32 0x0 PUSH20 0xFFFFFFFFFFFFFFFFFFFFFFFFFFFFFFFFFFFFFFFF AND SWAP1 PUSH4 0xDB3E2198 SWAP1 PUSH2 0x42D SWAP1 DUP5 SWAP1 PUSH1 0x4 ADD PUSH2 0xADC JUMP JUMPDEST PUSH1 0x20 PUSH1 0x40 MLOAD DUP1 DUP4 SUB DUP2 PUSH1 0x0 DUP8 GAS CALL ISZERO DUP1 ISZERO PUSH2 0x44C JUMPI RETURNDATASIZE PUSH1 0x0 DUP1 RETURNDATACOPY RETURNDATASIZE PUSH1 0x0 REVERT JUMPDEST POP POP POP POP PUSH1 0x40 MLOAD RETURNDATASIZE PUSH1 0x1F NOT PUSH1 0x1F DUP3 ADD AND DUP3 ADD DUP1 PUSH1 0x40 MSTORE POP DUP2 ADD SWAP1 PUSH2 0x470 SWAP2 SWAP1 PUSH2 0xAF6 JUMP JUMPDEST SWAP2 POP DUP3 DUP3 LT ISZERO PUSH2 0x4E2 JUMPI PUSH2 0x4BA PUSH20 0x165878A594CA255338ADFA4D48449F69242EB8F PUSH32 0x0 PUSH1 0x0 PUSH2 0x63E JUMP JUMPDEST PUSH2 0x4E2 PUSH20 0x165878A594CA255338ADFA4D48449F69242EB8F CALLER PUSH2 0x4DD DUP6 DUP8 PUSH2 0xB17 JUMP JUMPDEST PUSH2 0x787 JUMP JUMPDEST POP SWAP3 SWAP2 POP POP JUMP JUMPDEST PUSH1 0x0 DUP1 DUP6 PUSH20 0xFFFFFFFFFFFFFFFFFFFFFFFFFFFFFFFFFFFFFFFF AND PUSH4 0x23B872DD PUSH1 0xE0 SHL DUP7 DUP7 DUP7 PUSH1 0x40 MLOAD PUSH1 0x24 ADD PUSH2 0x520 SWAP4 SWAP3 SWAP2 SWAP1 PUSH2 0xB2A JUMP JUMPDEST PUSH1 0x40 DUP1 MLOAD PUSH1 0x1F NOT DUP2 DUP5 SUB ADD DUP2 MSTORE SWAP2 DUP2 MSTORE PUSH1 0x20 DUP3 ADD DUP1 MLOAD PUSH28 0xFFFFFFFFFFFFFFFFFFFFFFFFFFFFFFFFFFFFFFFFFFFFFFFFFFFFFFFF AND PUSH32 0xFFFFFFFF00000000000000000000000000000000000000000000000000000000 SWAP1 SWAP5 AND SWAP4 SWAP1 SWAP4 OR SWAP1 SWAP3 MSTORE SWAP1 MLOAD PUSH2 0x58B SWAP2 SWAP1 PUSH2 0xB98 JUMP JUMPDEST PUSH1 0x0 PUSH1 0x40 MLOAD DUP1 DUP4 SUB DUP2 PUSH1 0x0 DUP7 GAS CALL SWAP2 POP POP RETURNDATASIZE DUP1 PUSH1 0x0 DUP2 EQ PUSH2 0x5C8 JUMPI PUSH1 0x40 MLOAD SWAP2 POP PUSH1 0x1F NOT PUSH1 0x3F RETURNDATASIZE ADD AND DUP3 ADD PUSH1 0x40 MSTORE RETURNDATASIZE DUP3 MSTORE RETURNDATASIZE PUSH1 0x0 PUSH1 0x20 DUP5 ADD RETURNDATACOPY PUSH2 0x5CD JUMP JUMPDEST PUSH1 0x60 SWAP2 POP JUMPDEST POP SWAP2 POP SWAP2 POP DUP2 DUP1 ISZERO PUSH2 0x5F7 JUMPI POP DUP1 MLOAD ISZERO DUP1 PUSH2 0x5F7 JUMPI POP DUP1 DUP1 PUSH1 0x20 ADD SWAP1 MLOAD DUP2 ADD SWAP1 PUSH2 0x5F7 SWAP2 SWAP1 PUSH2 0xBB7 JUMP JUMPDEST PUSH2 0x636 JUMPI PUSH1 0x40 MLOAD PUSH32 0x8C379A000000000000000000000000000000000000000000000000000000000 DUP2 MSTORE PUSH1 0x4 ADD PUSH2 0x62D SWAP1 PUSH2 0xC0F JUMP JUMPDEST PUSH1 0x40 MLOAD DUP1 SWAP2 SUB SWAP1 REVERT JUMPDEST POP POP POP POP POP POP JUMP JUMPDEST PUSH1 0x0 DUP1 DUP5 PUSH20 0xFFFFFFFFFFFFFFFFFFFFFFFFFFFFFFFFFFFFFFFF AND PUSH4 0x95EA7B3 PUSH1 0xE0 SHL DUP6 DUP6 PUSH1 0x40 MLOAD PUSH1 0x24 ADD PUSH2 0x673 SWAP3 SWAP2 SWAP1 PUSH2 0xC1F JUMP JUMPDEST PUSH1 0x40 DUP1 MLOAD PUSH1 0x1F NOT DUP2 DUP5 SUB ADD DUP2 MSTORE SWAP2 DUP2 MSTORE PUSH1 0x20 DUP3 ADD DUP1 MLOAD PUSH28 0xFFFFFFFFFFFFFFFFFFFFFFFFFFFFFFFFFFFFFFFFFFFFFFFFFFFFFFFF AND PUSH32 0xFFFFFFFF00000000000000000000000000000000000000000000000000000000 SWAP1 SWAP5 AND SWAP4 SWAP1 SWAP4 OR SWAP1 SWAP3 MSTORE SWAP1 MLOAD PUSH2 0x6DE SWAP2 SWAP1 PUSH2 0xB98 JUMP JUMPDEST PUSH1 0x0 PUSH1 0x40 MLOAD DUP1 DUP4 SUB DUP2 PUSH1 0x0 DUP7 GAS CALL SWAP2 POP POP RETURNDATASIZE DUP1 PUSH1 0x0 DUP2 EQ PUSH2 0x71B JUMPI PUSH1 0x40 MLOAD SWAP2 POP PUSH1 0x1F NOT PUSH1 0x3F RETURNDATASIZE ADD AND DUP3 ADD PUSH1 0x40 MSTORE RETURNDATASIZE DUP3 MSTORE RETURNDATASIZE PUSH1 0x0 PUSH1 0x20 DUP5 ADD RETURNDATACOPY PUSH2 0x720 JUMP JUMPDEST PUSH1 0x60 SWAP2 POP JUMPDEST POP SWAP2 POP SWAP2 POP DUP2 DUP1 ISZERO PUSH2 0x74A JUMPI POP DUP1 MLOAD ISZERO DUP1 PUSH2 0x74A JUMPI POP DUP1 DUP1 PUSH1 0x20 ADD SWAP1 MLOAD DUP2 ADD SWAP1 PUSH2 0x74A SWAP2 SWAP1 PUSH2 0xBB7 JUMP JUMPDEST PUSH2 0x780 JUMPI PUSH1 0x40 MLOAD PUSH32 0x8C379A000000000000000000000000000000000000000000000000000000000 DUP2 MSTORE PUSH1 0x4 ADD PUSH2 0x62D SWAP1 PUSH2 0xC6E JUMP JUMPDEST POP POP POP POP POP JUMP JUMPDEST PUSH1 0x0 DUP1 DUP5 PUSH20 0xFFFFFFFFFFFFFFFFFFFFFFFFFFFFFFFFFFFFFFFF AND PUSH4 0xA9059CBB PUSH1 0xE0 SHL DUP6 DUP6 PUSH1 0x40 MLOAD PUSH1 0x24 ADD PUSH2 0x7BC SWAP3 SWAP2 SWAP1 PUSH2 0xC1F JUMP JUMPDEST PUSH1 0x40 DUP1 MLOAD PUSH1 0x1F NOT DUP2 DUP5 SUB ADD DUP2 MSTORE SWAP2 DUP2 MSTORE PUSH1 0x20 DUP3 ADD DUP1 MLOAD PUSH28 0xFFFFFFFFFFFFFFFFFFFFFFFFFFFFFFFFFFFFFFFFFFFFFFFFFFFFFFFF AND PUSH32 0xFFFFFFFF00000000000000000000000000000000000000000000000000000000 SWAP1 SWAP5 AND SWAP4 SWAP1 SWAP4 OR SWAP1 SWAP3 MSTORE SWAP1 MLOAD PUSH2 0x827 SWAP2 SWAP1 PUSH2 0xB98 JUMP JUMPDEST PUSH1 0x0 PUSH1 0x40 MLOAD DUP1 DUP4 SUB DUP2 PUSH1 0x0 DUP7 GAS CALL SWAP2 POP POP RETURNDATASIZE DUP1 PUSH1 0x0 DUP2 EQ PUSH2 0x864 JUMPI PUSH1 0x40 MLOAD SWAP2 POP PUSH1 0x1F NOT PUSH1 0x3F RETURNDATASIZE ADD AND DUP3 ADD PUSH1 0x40 MSTORE RETURNDATASIZE DUP3 MSTORE RETURNDATASIZE PUSH1 0x0 PUSH1 0x20 DUP5 ADD RETURNDATACOPY PUSH2 0x869 JUMP JUMPDEST PUSH1 0x60 SWAP2 POP JUMPDEST POP SWAP2 POP SWAP2 POP DUP2 DUP1 ISZERO PUSH2 0x893 JUMPI POP DUP1 MLOAD ISZERO DUP1 PUSH2 0x893 JUMPI POP DUP1 DUP1 PUSH1 0x20 ADD SWAP1 MLOAD DUP2 ADD SWAP1 PUSH2 0x893 SWAP2 SWAP1 PUSH2 0xBB7 JUMP JUMPDEST PUSH2 0x780 JUMPI PUSH1 0x40 MLOAD PUSH32 0x8C379A000000000000000000000000000000000000000000000000000000000 DUP2 MSTORE PUSH1 0x4 ADD PUSH2 0x62D SWAP1 PUSH2 0xCB2 JUMP JUMPDEST PUSH3 0xFFFFFF DUP2 AND JUMPDEST DUP3 MSTORE POP POP JUMP JUMPDEST PUSH1 0x20 DUP2 ADD PUSH2 0x8E4 DUP3 DUP5 PUSH2 0x8C9 JUMP JUMPDEST SWAP3 SWAP2 POP POP JUMP JUMPDEST PUSH1 0x0 PUSH20 0xFFFFFFFFFFFFFFFFFFFFFFFFFFFFFFFFFFFFFFFF DUP3 AND PUSH2 0x8E4 JUMP JUMPDEST PUSH2 0x8D0 DUP2 PUSH2 0x8EA JUMP JUMPDEST PUSH1 0x20 DUP2 ADD PUSH2 0x8E4 DUP3 DUP5 PUSH2 0x908 JUMP JUMPDEST DUP1 JUMPDEST DUP2 EQ PUSH2 0x92C JUMPI PUSH1 0x0 DUP1 REVERT JUMPDEST POP JUMP JUMPDEST DUP1 CALLDATALOAD PUSH2 0x8E4 DUP2 PUSH2 0x91F JUMP JUMPDEST PUSH1 0x0 PUSH1 0x20 DUP3 DUP5 SUB SLT ISZERO PUSH2 0x94F JUMPI PUSH2 0x94F PUSH1 0x0 DUP1 REVERT JUMPDEST PUSH1 0x0 PUSH2 0x95B DUP5 DUP5 PUSH2 0x92F JUMP JUMPDEST SWAP5 SWAP4 POP POP POP POP JUMP JUMPDEST DUP1 PUSH2 0x8D0 JUMP JUMPDEST PUSH1 0x20 DUP2 ADD PUSH2 0x8E4 DUP3 DUP5 PUSH2 0x963 JUMP JUMPDEST PUSH1 0x0 PUSH2 0x8E4 DUP3 PUSH2 0x8EA JUMP JUMPDEST PUSH1 0x0 PUSH2 0x8E4 DUP3 PUSH2 0x977 JUMP JUMPDEST PUSH2 0x8D0 DUP2 PUSH2 0x982 JUMP JUMPDEST PUSH1 0x20 DUP2 ADD PUSH2 0x8E4 DUP3 DUP5 PUSH2 0x98D JUMP JUMPDEST PUSH1 0x0 DUP1 PUSH1 0x40 DUP4 DUP6 SUB SLT ISZERO PUSH2 0x9BA JUMPI PUSH2 0x9BA PUSH1 0x0 DUP1 REVERT JUMPDEST PUSH1 0x0 PUSH2 0x9C6 DUP6 DUP6 PUSH2 0x92F JUMP JUMPDEST SWAP3 POP POP PUSH1 0x20 PUSH2 0x9D7 DUP6 DUP3 DUP7 ADD PUSH2 0x92F JUMP JUMPDEST SWAP2 POP POP SWAP3 POP SWAP3 SWAP1 POP JUMP JUMPDEST PUSH32 0x4E487B7100000000000000000000000000000000000000000000000000000000 PUSH1 0x0 MSTORE PUSH1 0x11 PUSH1 0x4 MSTORE PUSH1 0x24 PUSH1 0x0 REVERT JUMPDEST DUP1 DUP3 ADD DUP1 DUP3 GT ISZERO PUSH2 0x8E4 JUMPI PUSH2 0x8E4 PUSH2 0x9E1 JUMP JUMPDEST PUSH20 0xFFFFFFFFFFFFFFFFFFFFFFFFFFFFFFFFFFFFFFFF DUP2 AND PUSH2 0x8D0 JUMP JUMPDEST DUP1 MLOAD PUSH2 0x100 DUP4 ADD SWAP1 PUSH2 0xA51 DUP5 DUP3 PUSH2 0x908 JUMP JUMPDEST POP PUSH1 0x20 DUP3 ADD MLOAD PUSH2 0xA64 PUSH1 0x20 DUP6 ADD DUP3 PUSH2 0x908 JUMP JUMPDEST POP PUSH1 0x40 DUP3 ADD MLOAD PUSH2 0xA77 PUSH1 0x40 DUP6 ADD DUP3 PUSH2 0x8C9 JUMP JUMPDEST POP PUSH1 0x60 DUP3 ADD MLOAD PUSH2 0xA8A PUSH1 0x60 DUP6 ADD DUP3 PUSH2 0x908 JUMP JUMPDEST POP PUSH1 0x80 DUP3 ADD MLOAD PUSH2 0xA9D PUSH1 0x80 DUP6 ADD DUP3 PUSH2 0x963 JUMP JUMPDEST POP PUSH1 0xA0 DUP3 ADD MLOAD PUSH2 0xAB0 PUSH1 0xA0 DUP6 ADD DUP3 PUSH2 0x963 JUMP JUMPDEST POP PUSH1 0xC0 DUP3 ADD MLOAD PUSH2 0xAC3 PUSH1 0xC0 DUP6 ADD DUP3 PUSH2 0x963 JUMP JUMPDEST POP PUSH1 0xE0 DUP3 ADD MLOAD PUSH2 0xAD6 PUSH1 0xE0 DUP6 ADD DUP3 PUSH2 0xA23 JUMP JUMPDEST POP POP POP POP JUMP JUMPDEST PUSH2 0x100 DUP2 ADD PUSH2 0x8E4 DUP3 DUP5 PUSH2 0xA3F JUMP JUMPDEST DUP1 MLOAD PUSH2 0x8E4 DUP2 PUSH2 0x91F JUMP JUMPDEST PUSH1 0x0 PUSH1 0x20 DUP3 DUP5 SUB SLT ISZERO PUSH2 0xB0B JUMPI PUSH2 0xB0B PUSH1 0x0 DUP1 REVERT JUMPDEST PUSH1 0x0 PUSH2 0x95B DUP5 DUP5 PUSH2 0xAEB JUMP JUMPDEST DUP2 DUP2 SUB DUP2 DUP2 GT ISZERO PUSH2 0x8E4 JUMPI PUSH2 0x8E4 PUSH2 0x9E1 JUMP JUMPDEST PUSH1 0x60 DUP2 ADD PUSH2 0xB38 DUP3 DUP7 PUSH2 0x908 JUMP JUMPDEST PUSH2 0xB45 PUSH1 0x20 DUP4 ADD DUP6 PUSH2 0x908 JUMP JUMPDEST PUSH2 0x95B PUSH1 0x40 DUP4 ADD DUP5 PUSH2 0x963 JUMP JUMPDEST PUSH1 0x0 JUMPDEST DUP4 DUP2 LT ISZERO PUSH2 0xB6D JUMPI DUP2 DUP2 ADD MLOAD DUP4 DUP3 ADD MSTORE PUSH1 0x20 ADD PUSH2 0xB55 JUMP JUMPDEST POP POP PUSH1 0x0 SWAP2 ADD MSTORE JUMP JUMPDEST PUSH1 0x0 PUSH2 0xB80 DUP3 MLOAD SWAP1 JUMP JUMPDEST PUSH2 0xB8E DUP2 DUP6 PUSH1 0x20 DUP7 ADD PUSH2 0xB52 JUMP JUMPDEST SWAP3 SWAP1 SWAP3 ADD SWAP3 SWAP2 POP POP JUMP JUMPDEST PUSH1 0x0 PUSH2 0x2F0 DUP3 DUP5 PUSH2 0xB76 JUMP JUMPDEST DUP1 ISZERO ISZERO PUSH2 0x921 JUMP JUMPDEST DUP1 MLOAD PUSH2 0x8E4 DUP2 PUSH2 0xBA4 JUMP JUMPDEST PUSH1 0x0 PUSH1 0x20 DUP3 DUP5 SUB SLT ISZERO PUSH2 0xBCC JUMPI PUSH2 0xBCC PUSH1 0x0 DUP1 REVERT JUMPDEST PUSH1 0x0 PUSH2 0x95B DUP5 DUP5 PUSH2 0xBAC JUMP JUMPDEST PUSH1 0x3 DUP2 MSTORE PUSH1 0x0 PUSH1 0x20 DUP3 ADD PUSH32 0x5354460000000000000000000000000000000000000000000000000000000000 DUP2 MSTORE SWAP2 POP JUMPDEST POP PUSH1 0x20 ADD SWAP1 JUMP JUMPDEST PUSH1 0x20 DUP1 DUP3 MSTORE DUP2 ADD PUSH2 0x8E4 DUP2 PUSH2 0xBD8 JUMP JUMPDEST PUSH1 0x40 DUP2 ADD PUSH2 0xC2D DUP3 DUP6 PUSH2 0x908 JUMP JUMPDEST PUSH2 0x2F0 PUSH1 0x20 DUP4 ADD DUP5 PUSH2 0x963 JUMP JUMPDEST PUSH1 0x2 DUP2 MSTORE PUSH1 0x0 PUSH1 0x20 DUP3 ADD PUSH32 0x5341000000000000000000000000000000000000000000000000000000000000 DUP2 MSTORE SWAP2 POP PUSH2 0xC08 JUMP JUMPDEST PUSH1 0x20 DUP1 DUP3 MSTORE DUP2 ADD PUSH2 0x8E4 DUP2 PUSH2 0xC3A JUMP JUMPDEST PUSH1 0x2 DUP2 MSTORE PUSH1 0x0 PUSH1 0x20 DUP3 ADD PUSH32 0x5354000000000000000000000000000000000000000000000000000000000000 DUP2 MSTORE SWAP2 POP PUSH2 0xC08 JUMP JUMPDEST PUSH1 0x20 DUP1 DUP3 MSTORE DUP2 ADD PUSH2 0x8E4 DUP2 PUSH2 0xC7E JUMP INVALID LOG2 PUSH5 0x6970667358 0x22 SLT KECCAK256 DUP8 0xBC 0x2F ORIGIN ORIGIN STATICCALL PUSH17 0xF27049CB36106C2174C961D92116280340 SWAP14 0x2C DUP1 ORIGIN 0x2B 0xC3 0xEC SWAP15 PUSH5 0x736F6C6343 STOP ADDMOD GT STOP CALLER "},"methodIdentifiers":{"TETHER()":"78e7e3d1","USDC()":"89a30271","WETH9()":"4aa4a4fc","poolFee()":"089fe6aa","swapExactInputSingle(uint256)":"73bd43ad","swapExactOutputSingle(uint256,uint256)":"c4b69a18","swapRouter()":"c31c9c07"}}}}}