{"contracts/WrappedBitcoin.sol":{"WrappedBitcoin":{"abi":[{"inputs":[],"stateMutability":"nonpayable","type":"constructor"},{"anonymous":false,"inputs":[{"indexed":true,"internalType":"address","name":"owner","type":"address"},{"indexed":true,"internalType":"address","name":"spender","type":"address"},{"indexed":false,"internalType":"uint256","name":"value","type":"uint256"}],"name":"Approval","type":"event"},{"anonymous":false,"inputs":[{"indexed":true,"internalType":"address","name":"previousOwner","type":"address"},{"indexed":true,"internalType":"address","name":"newOwner","type":"address"}],"name":"OwnershipTransferred","type":"event"},{"anonymous":false,"inputs":[{"indexed":true,"internalType":"address","name":"from","type":"address"},{"indexed":true,"internalType":"address","name":"to","type":"address"},{"indexed":false,"internalType":"uint256","name":"value","type":"uint256"}],"name":"Transfer","type":"event"},{"inputs":[{"internalType":"address","name":"owner","type":"address"},{"internalType":"address","name":"spender","type":"address"}],"name":"allowance","outputs":[{"internalType":"uint256","name":"","type":"uint256"}],"stateMutability":"view","type":"function"},{"inputs":[{"internalType":"address","name":"spender","type":"address"},{"internalType":"uint256","name":"amount","type":"uint256"}],"name":"approve","outputs":[{"internalType":"bool","name":"","type":"bool"}],"stateMutability":"nonpayable","type":"function"},{"inputs":[{"internalType":"address","name":"account","type":"address"}],"name":"balanceOf","outputs":[{"internalType":"uint256","name":"","type":"uint256"}],"stateMutability":"view","type":"function"},{"inputs":[],"name":"decimals","outputs":[{"internalType":"uint8","name":"","type":"uint8"}],"stateMutability":"view","type":"function"},{"inputs":[{"internalType":"address","name":"spender","type":"address"},{"internalType":"uint256","name":"subtractedValue","type":"uint256"}],"name":"decreaseAllowance","outputs":[{"internalType":"bool","name":"","type":"bool"}],"stateMutability":"nonpayable","type":"function"},{"inputs":[{"internalType":"address","name":"spender","type":"address"},{"internalType":"uint256","name":"addedValue","type":"uint256"}],"name":"increaseAllowance","outputs":[{"internalType":"bool","name":"","type":"bool"}],"stateMutability":"nonpayable","type":"function"},{"inputs":[{"internalType":"address","name":"to","type":"address"},{"internalType":"uint256","name":"amount","type":"uint256"}],"name":"mint","outputs":[],"stateMutability":"nonpayable","type":"function"},{"inputs":[],"name":"name","outputs":[{"internalType":"string","name":"","type":"string"}],"stateMutability":"view","type":"function"},{"inputs":[],"name":"owner","outputs":[{"internalType":"address","name":"","type":"address"}],"stateMutability":"view","type":"function"},{"inputs":[],"name":"renounceOwnership","outputs":[],"stateMutability":"nonpayable","type":"function"},{"inputs":[],"name":"symbol","outputs":[{"internalType":"string","name":"","type":"string"}],"stateMutability":"view","type":"function"},{"inputs":[],"name":"totalSupply","outputs":[{"internalType":"uint256","name":"","type":"uint256"}],"stateMutability":"view","type":"function"},{"inputs":[{"internalType":"address","name":"to","type":"address"},{"internalType":"uint256","name":"amount","type":"uint256"}],"name":"transfer","outputs":[{"internalType":"bool","name":"","type":"bool"}],"stateMutability":"nonpayable","type":"function"},{"inputs":[{"internalType":"address","name":"from","type":"address"},{"internalType":"address","name":"to","type":"address"},{"internalType":"uint256","name":"amount","type":"uint256"}],"name":"transferFrom","outputs":[{"internalType":"bool","name":"","type":"bool"}],"stateMutability":"nonpayable","type":"function"},{"inputs":[{"internalType":"address","name":"newOwner","type":"address"}],"name":"transferOwnership","outputs":[],"stateMutability":"nonpayable","type":"function"}],"evm":{"bytecode":{"linkReferences":{},"object":"60806040523480156200001157600080fd5b506040518060400160405280600e81526020016d2bb930b83832b22134ba31b7b4b760911b815250604051806040016040528060048152602001635742544360e01b815250816003908162000067919062000208565b50600462000076828262000208565b505050620000936200008d6200009960201b60201c565b6200009d565b620002d8565b3390565b600580546001600160a01b038381166001600160a01b0319831681179093556040519116919082907f8be0079c531659141344cd1fd0a4f28419497f9722a3daafe3b4186f6b6457e090600090a35050565b634e487b7160e01b600052604160045260246000fd5b634e487b7160e01b600052602260045260246000fd5b6002810460018216806200013057607f821691505b60208210810362000145576200014562000105565b50919050565b60006200015c620001598381565b90565b92915050565b6200016d836200014b565b81546008840282811b60001990911b908116901990911617825550505050565b60006200019c81848462000162565b505050565b81811015620001c057620001b76000826200018d565b600101620001a1565b5050565b601f8211156200019c576000818152602090206020601f85010481016020851015620001ed5750805b620002016020601f860104830182620001a1565b5050505050565b81516001600160401b03811115620002245762000224620000ef565b6200023082546200011b565b6200023d828285620001c4565b6020601f8311600181146200027457600084156200025b5750858201515b600019600886021c1981166002860217865550620002d0565b600085815260208120601f198616915b82811015620002a6578885015182556020948501946001909201910162000284565b86831015620002c35784890151600019601f89166008021c191682555b6001600288020188555050505b505050505050565b61140880620002e86000396000f3fe608060405234801561001057600080fd5b50600436106100f55760003560e01c806370a0823111610097578063a457c2d711610066578063a457c2d7146101e5578063a9059cbb146101f8578063dd62ed3e1461020b578063f2fde38b1461024457600080fd5b806370a0823114610193578063715018a6146101bc5780638da5cb5b146101c457806395d89b41146101dd57600080fd5b806323b872dd116100d357806323b872dd14610149578063313ce5671461015c578063395093511461016b57806340c10f191461017e57600080fd5b806306fdde03146100fa578063095ea7b31461011857806318160ddd14610138575b600080fd5b610102610257565b60405161010f9190610daa565b60405180910390f35b61012b610126366004610dfc565b6102e9565b60405161010f9190610e43565b6002545b60405161010f9190610e57565b61012b610157366004610e65565b610303565b601260405161010f9190610ebe565b61012b610179366004610dfc565b610562565b61019161018c366004610dfc565b6105a1565b005b61013c6101a1366004610ecc565b6001600160a01b031660009081526020819052604090205490565b6101916105b7565b6005546001600160a01b031660405161010f9190610efe565b6101026105cb565b61012b6101f3366004610dfc565b6105da565b61012b610206366004610dfc565b610642565b61013c610219366004610f0c565b6001600160a01b03918216600090815260016020908152604080832093909416825291909152205490565b610191610252366004610ecc565b610650565b60606003805461026690610f6e565b80601f016020809104026020016040519081016040528092919081815260200182805461029290610f6e565b80156102df5780601f106102b4576101008083540402835291602001916102df565b820191906000526020600020905b8154815290600101906020018083116102c257829003601f168201915b5050505050905090565b6000336102f781858561068a565b60019150505b92915050565b60006103436040518060400160405280600a81526020017f0a0a0a0a2063616c6c3a0000000000000000000000000000000000000000000081525061073e565b6103826040518060400160405280601181526020017f0a20616464726573732874686973293a20000000000000000000000000000000815250306107af565b6103c16040518060400160405280600e81526020017f0a206d73672e73656e6465723a20000000000000000000000000000000000000815250336107af565b6104006040518060400160405280600881526020017f0a2066726f6d3a20000000000000000000000000000000000000000000000000815250856107af565b6104636040518060400160405280601081526020017f0a2066726f6d2062616c616e63653a2000000000000000000000000000000000815250600080876001600160a01b03166001600160a01b0316815260200190815260200160002054610822565b6104c06040518060400160405280601081526020017f0a2066726f6d2062616c616e63653a20000000000000000000000000000000008152506104bb866001600160a01b031660009081526020819052604090205490565b610822565b6104ff6040518060400160405280600681526020017f0a20746f3a200000000000000000000000000000000000000000000000000000815250846107af565b61053e6040518060400160405280600a81526020017f0a20616d6f756e743a200000000000000000000000000000000000000000000081525083610822565b3361054a858285610895565b610555858585610993565b60019150505b9392505050565b3360008181526001602090815260408083206001600160a01b03871684529091528120549091906102f7908290869061059c908790610fc9565b61068a565b6105a9610c09565b6105b38282610c33565b5050565b6105bf610c09565b6105c96000610cc9565b565b60606004805461026690610f6e565b3360008181526001602090815260408083206001600160a01b03871684529091528120549091908381101561062a5760405162461bcd60e51b815260040161062190611039565b60405180910390fd5b610637828686840361068a565b506001949350505050565b6000336102f7818585610993565b610658610c09565b6001600160a01b03811661067e5760405162461bcd60e51b8152600401610621906110a3565b61068781610cc9565b50565b6001600160a01b0383166106b05760405162461bcd60e51b81526004016106219061110d565b6001600160a01b0382166106d65760405162461bcd60e51b815260040161062190611177565b6001600160a01b0380841660008181526001602090815260408083209487168084529490915290819020849055517f8c5be1e5ebec7d5bd14f71427d1e84f3dd0314c0f7b2291e5b200ac8c7c3b92590610731908590610e57565b60405180910390a3505050565b610687816040516024016107529190610daa565b60408051601f198184030181529190526020810180517bffffffffffffffffffffffffffffffffffffffffffffffffffffffff167f41304fac00000000000000000000000000000000000000000000000000000000179052610d33565b6105b382826040516024016107c5929190611187565b60408051601f198184030181529190526020810180517bffffffffffffffffffffffffffffffffffffffffffffffffffffffff167f319af33300000000000000000000000000000000000000000000000000000000179052610d33565b6105b382826040516024016108389291906111a7565b60408051601f198184030181529190526020810180517bffffffffffffffffffffffffffffffffffffffffffffffffffffffff167fb60e72cc00000000000000000000000000000000000000000000000000000000179052610d33565b6108d46040518060400160405280601681526020017f0a205f7370656e64416c6c6f77616e636520696e3a200000000000000000000081525082610822565b6001600160a01b038381166000908152600160209081526040808320938616835292905220547fffffffffffffffffffffffffffffffffffffffffffffffffffffffffffffffff811461094e57818110156109415760405162461bcd60e51b8152600401610621906111fe565b61094e848484840361068a565b61098d6040518060400160405280601781526020017f0a205f7370656e64416c6c6f77616e6365206f75743a2000000000000000000081525083610822565b50505050565b6109d26040518060400160405280601081526020017f0a205f7472616e7366657220696e3a200000000000000000000000000000000081525082610822565b6001600160a01b0383166109f85760405162461bcd60e51b815260040161062190611268565b6001600160a01b038216610a1e5760405162461bcd60e51b8152600401610621906112d2565b610a5d6040518060400160405280601881526020017f0a205f6265666f7265546f6b656e5472616e736665723a20000000000000000081525082610822565b6001600160a01b03831660009081526020818152604091829020548251808401909352601683527f0a206265666f72652066726f6d42616c616e63653a20000000000000000000009183019190915290610ab79082610822565b81811015610ad75760405162461bcd60e51b81526004016106219061133c565b610b166040518060400160405280601581526020017f0a2061667465722066726f6d42616c616e63653a20000000000000000000000081525083610822565b6001600160a01b0380851660009081526020818152604080832086860390559286168252908290208054850190558151808301909252601782527f0a205f6166746572546f6b656e5472616e736665723a2000000000000000000090820152610b7f9083610822565b826001600160a01b0316846001600160a01b03167fddf252ad1be2c89b69c2b068fc378daa952ba7f163c4a11628f55a4df523b3ef84604051610bc29190610e57565b60405180910390a361098d6040518060400160405280601181526020017f0a205f7472616e73666572206f75743a2000000000000000000000000000000081525083610822565b6005546001600160a01b031633146105c95760405162461bcd60e51b81526004016106219061137e565b6001600160a01b038216610c595760405162461bcd60e51b8152600401610621906113c2565b8060026000828254610c6b9190610fc9565b90915550506001600160a01b038216600081815260208190526040808220805485019055517fddf252ad1be2c89b69c2b068fc378daa952ba7f163c4a11628f55a4df523b3ef90610cbd908590610e57565b60405180910390a35050565b600580546001600160a01b038381167fffffffffffffffffffffffff0000000000000000000000000000000000000000831681179093556040519116919082907f8be0079c531659141344cd1fd0a4f28419497f9722a3daafe3b4186f6b6457e090600090a35050565b80516a636f6e736f6c652e6c6f67602083016000808483855afa5050505050565b60005b83811015610d6f578181015183820152602001610d57565b50506000910152565b6000610d82825190565b808452602084019350610d99818560208601610d54565b601f01601f19169290920192915050565b6020808252810161055b8184610d78565b60006001600160a01b0382166102fd565b610dd581610dbb565b811461068757600080fd5b80356102fd81610dcc565b80610dd5565b80356102fd81610deb565b60008060408385031215610e1257610e12600080fd5b6000610e1e8585610de0565b9250506020610e2f85828601610df1565b9150509250929050565b8015155b82525050565b602081016102fd8284610e39565b80610e3d565b602081016102fd8284610e51565b600080600060608486031215610e7d57610e7d600080fd5b6000610e898686610de0565b9350506020610e9a86828701610de0565b9250506040610eab86828701610df1565b9150509250925092565b60ff8116610e3d565b602081016102fd8284610eb5565b600060208284031215610ee157610ee1600080fd5b6000610eed8484610de0565b949350505050565b610e3d81610dbb565b602081016102fd8284610ef5565b60008060408385031215610f2257610f22600080fd5b6000610f2e8585610de0565b9250506020610e2f85828601610de0565b7f4e487b7100000000000000000000000000000000000000000000000000000000600052602260045260246000fd5b600281046001821680610f8257607f821691505b602082108103610f9457610f94610f3f565b50919050565b7f4e487b7100000000000000000000000000000000000000000000000000000000600052601160045260246000fd5b808201808211156102fd576102fd610f9a565b602581526000602082017f45524332303a2064656372656173656420616c6c6f77616e63652062656c6f7781527f207a65726f000000000000000000000000000000000000000000000000000000602082015291505b5060400190565b602080825281016102fd81610fdc565b602681526000602082017f4f776e61626c653a206e6577206f776e657220697320746865207a65726f206181527f646472657373000000000000000000000000000000000000000000000000000060208201529150611032565b602080825281016102fd81611049565b602481526000602082017f45524332303a20617070726f76652066726f6d20746865207a65726f2061646481527f726573730000000000000000000000000000000000000000000000000000000060208201529150611032565b602080825281016102fd816110b3565b602281526000602082017f45524332303a20617070726f766520746f20746865207a65726f20616464726581527f737300000000000000000000000000000000000000000000000000000000000060208201529150611032565b602080825281016102fd8161111d565b604080825281016111988185610d78565b905061055b6020830184610ef5565b604080825281016111b88185610d78565b905061055b6020830184610e51565b601d81526000602082017f45524332303a20696e73756666696369656e7420616c6c6f77616e6365000000815291505b5060200190565b602080825281016102fd816111c7565b602581526000602082017f45524332303a207472616e736665722066726f6d20746865207a65726f20616481527f647265737300000000000000000000000000000000000000000000000000000060208201529150611032565b602080825281016102fd8161120e565b602381526000602082017f45524332303a207472616e7366657220746f20746865207a65726f206164647281527f657373000000000000000000000000000000000000000000000000000000000060208201529150611032565b602080825281016102fd81611278565b602681526000602082017f45524332303a207472616e7366657220616d6f756e742065786365656473206281527f616c616e6365000000000000000000000000000000000000000000000000000060208201529150611032565b602080825281016102fd816112e2565b60208082527f4f776e61626c653a2063616c6c6572206973206e6f7420746865206f776e6572910190815260006111f7565b602080825281016102fd8161134c565b601f81526000602082017f45524332303a206d696e7420746f20746865207a65726f206164647265737300815291506111f7565b602080825281016102fd8161138e56fea26469706673582212202d034394bb4055f03e283fc22fdd789f31bd2e7ff4e0da0284b730b7b79d60d364736f6c63430008110033","opcodes":"PUSH1 0x80 PUSH1 0x40 MSTORE CALLVALUE DUP1 ISZERO PUSH3 0x11 JUMPI PUSH1 0x0 DUP1 REVERT JUMPDEST POP PUSH1 0x40 MLOAD DUP1 PUSH1 0x40 ADD PUSH1 0x40 MSTORE DUP1 PUSH1 0xE DUP2 MSTORE PUSH1 0x20 ADD PUSH14 0x2BB930B83832B22134BA31B7B4B7 PUSH1 0x91 SHL DUP2 MSTORE POP PUSH1 0x40 MLOAD DUP1 PUSH1 0x40 ADD PUSH1 0x40 MSTORE DUP1 PUSH1 0x4 DUP2 MSTORE PUSH1 0x20 ADD PUSH4 0x57425443 PUSH1 0xE0 SHL DUP2 MSTORE POP DUP2 PUSH1 0x3 SWAP1 DUP2 PUSH3 0x67 SWAP2 SWAP1 PUSH3 0x208 JUMP JUMPDEST POP PUSH1 0x4 PUSH3 0x76 DUP3 DUP3 PUSH3 0x208 JUMP JUMPDEST POP POP POP PUSH3 0x93 PUSH3 0x8D PUSH3 0x99 PUSH1 0x20 SHL PUSH1 0x20 SHR JUMP JUMPDEST PUSH3 0x9D JUMP JUMPDEST PUSH3 0x2D8 JUMP JUMPDEST CALLER SWAP1 JUMP JUMPDEST PUSH1 0x5 DUP1 SLOAD PUSH1 0x1 PUSH1 0x1 PUSH1 0xA0 SHL SUB DUP4 DUP2 AND PUSH1 0x1 PUSH1 0x1 PUSH1 0xA0 SHL SUB NOT DUP4 AND DUP2 OR SWAP1 SWAP4 SSTORE PUSH1 0x40 MLOAD SWAP2 AND SWAP2 SWAP1 DUP3 SWAP1 PUSH32 0x8BE0079C531659141344CD1FD0A4F28419497F9722A3DAAFE3B4186F6B6457E0 SWAP1 PUSH1 0x0 SWAP1 LOG3 POP POP JUMP JUMPDEST PUSH4 0x4E487B71 PUSH1 0xE0 SHL PUSH1 0x0 MSTORE PUSH1 0x41 PUSH1 0x4 MSTORE PUSH1 0x24 PUSH1 0x0 REVERT JUMPDEST PUSH4 0x4E487B71 PUSH1 0xE0 SHL PUSH1 0x0 MSTORE PUSH1 0x22 PUSH1 0x4 MSTORE PUSH1 0x24 PUSH1 0x0 REVERT JUMPDEST PUSH1 0x2 DUP2 DIV PUSH1 0x1 DUP3 AND DUP1 PUSH3 0x130 JUMPI PUSH1 0x7F DUP3 AND SWAP2 POP JUMPDEST PUSH1 0x20 DUP3 LT DUP2 SUB PUSH3 0x145 JUMPI PUSH3 0x145 PUSH3 0x105 JUMP JUMPDEST POP SWAP2 SWAP1 POP JUMP JUMPDEST PUSH1 0x0 PUSH3 0x15C PUSH3 0x159 DUP4 DUP2 JUMP JUMPDEST SWAP1 JUMP JUMPDEST SWAP3 SWAP2 POP POP JUMP JUMPDEST PUSH3 0x16D DUP4 PUSH3 0x14B JUMP JUMPDEST DUP2 SLOAD PUSH1 0x8 DUP5 MUL DUP3 DUP2 SHL PUSH1 0x0 NOT SWAP1 SWAP2 SHL SWAP1 DUP2 AND SWAP1 NOT SWAP1 SWAP2 AND OR DUP3 SSTORE POP POP POP POP JUMP JUMPDEST PUSH1 0x0 PUSH3 0x19C DUP2 DUP5 DUP5 PUSH3 0x162 JUMP JUMPDEST POP POP POP JUMP JUMPDEST DUP2 DUP2 LT ISZERO PUSH3 0x1C0 JUMPI PUSH3 0x1B7 PUSH1 0x0 DUP3 PUSH3 0x18D JUMP JUMPDEST PUSH1 0x1 ADD PUSH3 0x1A1 JUMP JUMPDEST POP POP JUMP JUMPDEST PUSH1 0x1F DUP3 GT ISZERO PUSH3 0x19C JUMPI PUSH1 0x0 DUP2 DUP2 MSTORE PUSH1 0x20 SWAP1 KECCAK256 PUSH1 0x20 PUSH1 0x1F DUP6 ADD DIV DUP2 ADD PUSH1 0x20 DUP6 LT ISZERO PUSH3 0x1ED JUMPI POP DUP1 JUMPDEST PUSH3 0x201 PUSH1 0x20 PUSH1 0x1F DUP7 ADD DIV DUP4 ADD DUP3 PUSH3 0x1A1 JUMP JUMPDEST POP POP POP POP POP JUMP JUMPDEST DUP2 MLOAD PUSH1 0x1 PUSH1 0x1 PUSH1 0x40 SHL SUB DUP2 GT ISZERO PUSH3 0x224 JUMPI PUSH3 0x224 PUSH3 0xEF JUMP JUMPDEST PUSH3 0x230 DUP3 SLOAD PUSH3 0x11B JUMP JUMPDEST PUSH3 0x23D DUP3 DUP3 DUP6 PUSH3 0x1C4 JUMP JUMPDEST PUSH1 0x20 PUSH1 0x1F DUP4 GT PUSH1 0x1 DUP2 EQ PUSH3 0x274 JUMPI PUSH1 0x0 DUP5 ISZERO PUSH3 0x25B JUMPI POP DUP6 DUP3 ADD MLOAD JUMPDEST PUSH1 0x0 NOT PUSH1 0x8 DUP7 MUL SHR NOT DUP2 AND PUSH1 0x2 DUP7 MUL OR DUP7 SSTORE POP PUSH3 0x2D0 JUMP JUMPDEST PUSH1 0x0 DUP6 DUP2 MSTORE PUSH1 0x20 DUP2 KECCAK256 PUSH1 0x1F NOT DUP7 AND SWAP2 JUMPDEST DUP3 DUP2 LT ISZERO PUSH3 0x2A6 JUMPI DUP9 DUP6 ADD MLOAD DUP3 SSTORE PUSH1 0x20 SWAP5 DUP6 ADD SWAP5 PUSH1 0x1 SWAP1 SWAP3 ADD SWAP2 ADD PUSH3 0x284 JUMP JUMPDEST DUP7 DUP4 LT ISZERO PUSH3 0x2C3 JUMPI DUP5 DUP10 ADD MLOAD PUSH1 0x0 NOT PUSH1 0x1F DUP10 AND PUSH1 0x8 MUL SHR NOT AND DUP3 SSTORE JUMPDEST PUSH1 0x1 PUSH1 0x2 DUP9 MUL ADD DUP9 SSTORE POP POP POP JUMPDEST POP POP POP POP POP POP JUMP JUMPDEST PUSH2 0x1408 DUP1 PUSH3 0x2E8 PUSH1 0x0 CODECOPY PUSH1 0x0 RETURN INVALID PUSH1 0x80 PUSH1 0x40 MSTORE CALLVALUE DUP1 ISZERO PUSH2 0x10 JUMPI PUSH1 0x0 DUP1 REVERT JUMPDEST POP PUSH1 0x4 CALLDATASIZE LT PUSH2 0xF5 JUMPI PUSH1 0x0 CALLDATALOAD PUSH1 0xE0 SHR DUP1 PUSH4 0x70A08231 GT PUSH2 0x97 JUMPI DUP1 PUSH4 0xA457C2D7 GT PUSH2 0x66 JUMPI DUP1 PUSH4 0xA457C2D7 EQ PUSH2 0x1E5 JUMPI DUP1 PUSH4 0xA9059CBB EQ PUSH2 0x1F8 JUMPI DUP1 PUSH4 0xDD62ED3E EQ PUSH2 0x20B JUMPI DUP1 PUSH4 0xF2FDE38B EQ PUSH2 0x244 JUMPI PUSH1 0x0 DUP1 REVERT JUMPDEST DUP1 PUSH4 0x70A08231 EQ PUSH2 0x193 JUMPI DUP1 PUSH4 0x715018A6 EQ PUSH2 0x1BC JUMPI DUP1 PUSH4 0x8DA5CB5B EQ PUSH2 0x1C4 JUMPI DUP1 PUSH4 0x95D89B41 EQ PUSH2 0x1DD JUMPI PUSH1 0x0 DUP1 REVERT JUMPDEST DUP1 PUSH4 0x23B872DD GT PUSH2 0xD3 JUMPI DUP1 PUSH4 0x23B872DD EQ PUSH2 0x149 JUMPI DUP1 PUSH4 0x313CE567 EQ PUSH2 0x15C JUMPI DUP1 PUSH4 0x39509351 EQ PUSH2 0x16B JUMPI DUP1 PUSH4 0x40C10F19 EQ PUSH2 0x17E JUMPI PUSH1 0x0 DUP1 REVERT JUMPDEST DUP1 PUSH4 0x6FDDE03 EQ PUSH2 0xFA JUMPI DUP1 PUSH4 0x95EA7B3 EQ PUSH2 0x118 JUMPI DUP1 PUSH4 0x18160DDD EQ PUSH2 0x138 JUMPI JUMPDEST PUSH1 0x0 DUP1 REVERT JUMPDEST PUSH2 0x102 PUSH2 0x257 JUMP JUMPDEST PUSH1 0x40 MLOAD PUSH2 0x10F SWAP2 SWAP1 PUSH2 0xDAA JUMP JUMPDEST PUSH1 0x40 MLOAD DUP1 SWAP2 SUB SWAP1 RETURN JUMPDEST PUSH2 0x12B PUSH2 0x126 CALLDATASIZE PUSH1 0x4 PUSH2 0xDFC JUMP JUMPDEST PUSH2 0x2E9 JUMP JUMPDEST PUSH1 0x40 MLOAD PUSH2 0x10F SWAP2 SWAP1 PUSH2 0xE43 JUMP JUMPDEST PUSH1 0x2 SLOAD JUMPDEST PUSH1 0x40 MLOAD PUSH2 0x10F SWAP2 SWAP1 PUSH2 0xE57 JUMP JUMPDEST PUSH2 0x12B PUSH2 0x157 CALLDATASIZE PUSH1 0x4 PUSH2 0xE65 JUMP JUMPDEST PUSH2 0x303 JUMP JUMPDEST PUSH1 0x12 PUSH1 0x40 MLOAD PUSH2 0x10F SWAP2 SWAP1 PUSH2 0xEBE JUMP JUMPDEST PUSH2 0x12B PUSH2 0x179 CALLDATASIZE PUSH1 0x4 PUSH2 0xDFC JUMP JUMPDEST PUSH2 0x562 JUMP JUMPDEST PUSH2 0x191 PUSH2 0x18C CALLDATASIZE PUSH1 0x4 PUSH2 0xDFC JUMP JUMPDEST PUSH2 0x5A1 JUMP JUMPDEST STOP JUMPDEST PUSH2 0x13C PUSH2 0x1A1 CALLDATASIZE PUSH1 0x4 PUSH2 0xECC JUMP JUMPDEST PUSH1 0x1 PUSH1 0x1 PUSH1 0xA0 SHL SUB AND PUSH1 0x0 SWAP1 DUP2 MSTORE PUSH1 0x20 DUP2 SWAP1 MSTORE PUSH1 0x40 SWAP1 KECCAK256 SLOAD SWAP1 JUMP JUMPDEST PUSH2 0x191 PUSH2 0x5B7 JUMP JUMPDEST PUSH1 0x5 SLOAD PUSH1 0x1 PUSH1 0x1 PUSH1 0xA0 SHL SUB AND PUSH1 0x40 MLOAD PUSH2 0x10F SWAP2 SWAP1 PUSH2 0xEFE JUMP JUMPDEST PUSH2 0x102 PUSH2 0x5CB JUMP JUMPDEST PUSH2 0x12B PUSH2 0x1F3 CALLDATASIZE PUSH1 0x4 PUSH2 0xDFC JUMP JUMPDEST PUSH2 0x5DA JUMP JUMPDEST PUSH2 0x12B PUSH2 0x206 CALLDATASIZE PUSH1 0x4 PUSH2 0xDFC JUMP JUMPDEST PUSH2 0x642 JUMP JUMPDEST PUSH2 0x13C PUSH2 0x219 CALLDATASIZE PUSH1 0x4 PUSH2 0xF0C JUMP JUMPDEST PUSH1 0x1 PUSH1 0x1 PUSH1 0xA0 SHL SUB SWAP2 DUP3 AND PUSH1 0x0 SWAP1 DUP2 MSTORE PUSH1 0x1 PUSH1 0x20 SWAP1 DUP2 MSTORE PUSH1 0x40 DUP1 DUP4 KECCAK256 SWAP4 SWAP1 SWAP5 AND DUP3 MSTORE SWAP2 SWAP1 SWAP2 MSTORE KECCAK256 SLOAD SWAP1 JUMP JUMPDEST PUSH2 0x191 PUSH2 0x252 CALLDATASIZE PUSH1 0x4 PUSH2 0xECC JUMP JUMPDEST PUSH2 0x650 JUMP JUMPDEST PUSH1 0x60 PUSH1 0x3 DUP1 SLOAD PUSH2 0x266 SWAP1 PUSH2 0xF6E JUMP JUMPDEST DUP1 PUSH1 0x1F ADD PUSH1 0x20 DUP1 SWAP2 DIV MUL PUSH1 0x20 ADD PUSH1 0x40 MLOAD SWAP1 DUP2 ADD PUSH1 0x40 MSTORE DUP1 SWAP3 SWAP2 SWAP1 DUP2 DUP2 MSTORE PUSH1 0x20 ADD DUP3 DUP1 SLOAD PUSH2 0x292 SWAP1 PUSH2 0xF6E JUMP JUMPDEST DUP1 ISZERO PUSH2 0x2DF JUMPI DUP1 PUSH1 0x1F LT PUSH2 0x2B4 JUMPI PUSH2 0x100 DUP1 DUP4 SLOAD DIV MUL DUP4 MSTORE SWAP2 PUSH1 0x20 ADD SWAP2 PUSH2 0x2DF JUMP JUMPDEST DUP3 ADD SWAP2 SWAP1 PUSH1 0x0 MSTORE PUSH1 0x20 PUSH1 0x0 KECCAK256 SWAP1 JUMPDEST DUP2 SLOAD DUP2 MSTORE SWAP1 PUSH1 0x1 ADD SWAP1 PUSH1 0x20 ADD DUP1 DUP4 GT PUSH2 0x2C2 JUMPI DUP3 SWAP1 SUB PUSH1 0x1F AND DUP3 ADD SWAP2 JUMPDEST POP POP POP POP POP SWAP1 POP SWAP1 JUMP JUMPDEST PUSH1 0x0 CALLER PUSH2 0x2F7 DUP2 DUP6 DUP6 PUSH2 0x68A JUMP JUMPDEST PUSH1 0x1 SWAP2 POP POP JUMPDEST SWAP3 SWAP2 POP POP JUMP JUMPDEST PUSH1 0x0 PUSH2 0x343 PUSH1 0x40 MLOAD DUP1 PUSH1 0x40 ADD PUSH1 0x40 MSTORE DUP1 PUSH1 0xA DUP2 MSTORE PUSH1 0x20 ADD PUSH32 0xA0A0A0A2063616C6C3A00000000000000000000000000000000000000000000 DUP2 MSTORE POP PUSH2 0x73E JUMP JUMPDEST PUSH2 0x382 PUSH1 0x40 MLOAD DUP1 PUSH1 0x40 ADD PUSH1 0x40 MSTORE DUP1 PUSH1 0x11 DUP2 MSTORE PUSH1 0x20 ADD PUSH32 0xA20616464726573732874686973293A20000000000000000000000000000000 DUP2 MSTORE POP ADDRESS PUSH2 0x7AF JUMP JUMPDEST PUSH2 0x3C1 PUSH1 0x40 MLOAD DUP1 PUSH1 0x40 ADD PUSH1 0x40 MSTORE DUP1 PUSH1 0xE DUP2 MSTORE PUSH1 0x20 ADD PUSH32 0xA206D73672E73656E6465723A20000000000000000000000000000000000000 DUP2 MSTORE POP CALLER PUSH2 0x7AF JUMP JUMPDEST PUSH2 0x400 PUSH1 0x40 MLOAD DUP1 PUSH1 0x40 ADD PUSH1 0x40 MSTORE DUP1 PUSH1 0x8 DUP2 MSTORE PUSH1 0x20 ADD PUSH32 0xA2066726F6D3A20000000000000000000000000000000000000000000000000 DUP2 MSTORE POP DUP6 PUSH2 0x7AF JUMP JUMPDEST PUSH2 0x463 PUSH1 0x40 MLOAD DUP1 PUSH1 0x40 ADD PUSH1 0x40 MSTORE DUP1 PUSH1 0x10 DUP2 MSTORE PUSH1 0x20 ADD PUSH32 0xA2066726F6D2062616C616E63653A2000000000000000000000000000000000 DUP2 MSTORE POP PUSH1 0x0 DUP1 DUP8 PUSH1 0x1 PUSH1 0x1 PUSH1 0xA0 SHL SUB AND PUSH1 0x1 PUSH1 0x1 PUSH1 0xA0 SHL SUB AND DUP2 MSTORE PUSH1 0x20 ADD SWAP1 DUP2 MSTORE PUSH1 0x20 ADD PUSH1 0x0 KECCAK256 SLOAD PUSH2 0x822 JUMP JUMPDEST PUSH2 0x4C0 PUSH1 0x40 MLOAD DUP1 PUSH1 0x40 ADD PUSH1 0x40 MSTORE DUP1 PUSH1 0x10 DUP2 MSTORE PUSH1 0x20 ADD PUSH32 0xA2066726F6D2062616C616E63653A2000000000000000000000000000000000 DUP2 MSTORE POP PUSH2 0x4BB DUP7 PUSH1 0x1 PUSH1 0x1 PUSH1 0xA0 SHL SUB AND PUSH1 0x0 SWAP1 DUP2 MSTORE PUSH1 0x20 DUP2 SWAP1 MSTORE PUSH1 0x40 SWAP1 KECCAK256 SLOAD SWAP1 JUMP JUMPDEST PUSH2 0x822 JUMP JUMPDEST PUSH2 0x4FF PUSH1 0x40 MLOAD DUP1 PUSH1 0x40 ADD PUSH1 0x40 MSTORE DUP1 PUSH1 0x6 DUP2 MSTORE PUSH1 0x20 ADD PUSH32 0xA20746F3A200000000000000000000000000000000000000000000000000000 DUP2 MSTORE POP DUP5 PUSH2 0x7AF JUMP JUMPDEST PUSH2 0x53E PUSH1 0x40 MLOAD DUP1 PUSH1 0x40 ADD PUSH1 0x40 MSTORE DUP1 PUSH1 0xA DUP2 MSTORE PUSH1 0x20 ADD PUSH32 0xA20616D6F756E743A2000000000000000000000000000000000000000000000 DUP2 MSTORE POP DUP4 PUSH2 0x822 JUMP JUMPDEST CALLER PUSH2 0x54A DUP6 DUP3 DUP6 PUSH2 0x895 JUMP JUMPDEST PUSH2 0x555 DUP6 DUP6 DUP6 PUSH2 0x993 JUMP JUMPDEST PUSH1 0x1 SWAP2 POP POP JUMPDEST SWAP4 SWAP3 POP POP POP JUMP JUMPDEST CALLER PUSH1 0x0 DUP2 DUP2 MSTORE PUSH1 0x1 PUSH1 0x20 SWAP1 DUP2 MSTORE PUSH1 0x40 DUP1 DUP4 KECCAK256 PUSH1 0x1 PUSH1 0x1 PUSH1 0xA0 SHL SUB DUP8 AND DUP5 MSTORE SWAP1 SWAP2 MSTORE DUP2 KECCAK256 SLOAD SWAP1 SWAP2 SWAP1 PUSH2 0x2F7 SWAP1 DUP3 SWAP1 DUP7 SWAP1 PUSH2 0x59C SWAP1 DUP8 SWAP1 PUSH2 0xFC9 JUMP JUMPDEST PUSH2 0x68A JUMP JUMPDEST PUSH2 0x5A9 PUSH2 0xC09 JUMP JUMPDEST PUSH2 0x5B3 DUP3 DUP3 PUSH2 0xC33 JUMP JUMPDEST POP POP JUMP JUMPDEST PUSH2 0x5BF PUSH2 0xC09 JUMP JUMPDEST PUSH2 0x5C9 PUSH1 0x0 PUSH2 0xCC9 JUMP JUMPDEST JUMP JUMPDEST PUSH1 0x60 PUSH1 0x4 DUP1 SLOAD PUSH2 0x266 SWAP1 PUSH2 0xF6E JUMP JUMPDEST CALLER PUSH1 0x0 DUP2 DUP2 MSTORE PUSH1 0x1 PUSH1 0x20 SWAP1 DUP2 MSTORE PUSH1 0x40 DUP1 DUP4 KECCAK256 PUSH1 0x1 PUSH1 0x1 PUSH1 0xA0 SHL SUB DUP8 AND DUP5 MSTORE SWAP1 SWAP2 MSTORE DUP2 KECCAK256 SLOAD SWAP1 SWAP2 SWAP1 DUP4 DUP2 LT ISZERO PUSH2 0x62A JUMPI PUSH1 0x40 MLOAD PUSH3 0x461BCD PUSH1 0xE5 SHL DUP2 MSTORE PUSH1 0x4 ADD PUSH2 0x621 SWAP1 PUSH2 0x1039 JUMP JUMPDEST PUSH1 0x40 MLOAD DUP1 SWAP2 SUB SWAP1 REVERT JUMPDEST PUSH2 0x637 DUP3 DUP7 DUP7 DUP5 SUB PUSH2 0x68A JUMP JUMPDEST POP PUSH1 0x1 SWAP5 SWAP4 POP POP POP POP JUMP JUMPDEST PUSH1 0x0 CALLER PUSH2 0x2F7 DUP2 DUP6 DUP6 PUSH2 0x993 JUMP JUMPDEST PUSH2 0x658 PUSH2 0xC09 JUMP JUMPDEST PUSH1 0x1 PUSH1 0x1 PUSH1 0xA0 SHL SUB DUP2 AND PUSH2 0x67E JUMPI PUSH1 0x40 MLOAD PUSH3 0x461BCD PUSH1 0xE5 SHL DUP2 MSTORE PUSH1 0x4 ADD PUSH2 0x621 SWAP1 PUSH2 0x10A3 JUMP JUMPDEST PUSH2 0x687 DUP2 PUSH2 0xCC9 JUMP JUMPDEST POP JUMP JUMPDEST PUSH1 0x1 PUSH1 0x1 PUSH1 0xA0 SHL SUB DUP4 AND PUSH2 0x6B0 JUMPI PUSH1 0x40 MLOAD PUSH3 0x461BCD PUSH1 0xE5 SHL DUP2 MSTORE PUSH1 0x4 ADD PUSH2 0x621 SWAP1 PUSH2 0x110D JUMP JUMPDEST PUSH1 0x1 PUSH1 0x1 PUSH1 0xA0 SHL SUB DUP3 AND PUSH2 0x6D6 JUMPI PUSH1 0x40 MLOAD PUSH3 0x461BCD PUSH1 0xE5 SHL DUP2 MSTORE PUSH1 0x4 ADD PUSH2 0x621 SWAP1 PUSH2 0x1177 JUMP JUMPDEST PUSH1 0x1 PUSH1 0x1 PUSH1 0xA0 SHL SUB DUP1 DUP5 AND PUSH1 0x0 DUP2 DUP2 MSTORE PUSH1 0x1 PUSH1 0x20 SWAP1 DUP2 MSTORE PUSH1 0x40 DUP1 DUP4 KECCAK256 SWAP5 DUP8 AND DUP1 DUP5 MSTORE SWAP5 SWAP1 SWAP2 MSTORE SWAP1 DUP2 SWAP1 KECCAK256 DUP5 SWAP1 SSTORE MLOAD PUSH32 0x8C5BE1E5EBEC7D5BD14F71427D1E84F3DD0314C0F7B2291E5B200AC8C7C3B925 SWAP1 PUSH2 0x731 SWAP1 DUP6 SWAP1 PUSH2 0xE57 JUMP JUMPDEST PUSH1 0x40 MLOAD DUP1 SWAP2 SUB SWAP1 LOG3 POP POP POP JUMP JUMPDEST PUSH2 0x687 DUP2 PUSH1 0x40 MLOAD PUSH1 0x24 ADD PUSH2 0x752 SWAP2 SWAP1 PUSH2 0xDAA JUMP JUMPDEST PUSH1 0x40 DUP1 MLOAD PUSH1 0x1F NOT DUP2 DUP5 SUB ADD DUP2 MSTORE SWAP2 SWAP1 MSTORE PUSH1 0x20 DUP2 ADD DUP1 MLOAD PUSH28 0xFFFFFFFFFFFFFFFFFFFFFFFFFFFFFFFFFFFFFFFFFFFFFFFFFFFFFFFF AND PUSH32 0x41304FAC00000000000000000000000000000000000000000000000000000000 OR SWAP1 MSTORE PUSH2 0xD33 JUMP JUMPDEST PUSH2 0x5B3 DUP3 DUP3 PUSH1 0x40 MLOAD PUSH1 0x24 ADD PUSH2 0x7C5 SWAP3 SWAP2 SWAP1 PUSH2 0x1187 JUMP JUMPDEST PUSH1 0x40 DUP1 MLOAD PUSH1 0x1F NOT DUP2 DUP5 SUB ADD DUP2 MSTORE SWAP2 SWAP1 MSTORE PUSH1 0x20 DUP2 ADD DUP1 MLOAD PUSH28 0xFFFFFFFFFFFFFFFFFFFFFFFFFFFFFFFFFFFFFFFFFFFFFFFFFFFFFFFF AND PUSH32 0x319AF33300000000000000000000000000000000000000000000000000000000 OR SWAP1 MSTORE PUSH2 0xD33 JUMP JUMPDEST PUSH2 0x5B3 DUP3 DUP3 PUSH1 0x40 MLOAD PUSH1 0x24 ADD PUSH2 0x838 SWAP3 SWAP2 SWAP1 PUSH2 0x11A7 JUMP JUMPDEST PUSH1 0x40 DUP1 MLOAD PUSH1 0x1F NOT DUP2 DUP5 SUB ADD DUP2 MSTORE SWAP2 SWAP1 MSTORE PUSH1 0x20 DUP2 ADD DUP1 MLOAD PUSH28 0xFFFFFFFFFFFFFFFFFFFFFFFFFFFFFFFFFFFFFFFFFFFFFFFFFFFFFFFF AND PUSH32 0xB60E72CC00000000000000000000000000000000000000000000000000000000 OR SWAP1 MSTORE PUSH2 0xD33 JUMP JUMPDEST PUSH2 0x8D4 PUSH1 0x40 MLOAD DUP1 PUSH1 0x40 ADD PUSH1 0x40 MSTORE DUP1 PUSH1 0x16 DUP2 MSTORE PUSH1 0x20 ADD PUSH32 0xA205F7370656E64416C6C6F77616E636520696E3A2000000000000000000000 DUP2 MSTORE POP DUP3 PUSH2 0x822 JUMP JUMPDEST PUSH1 0x1 PUSH1 0x1 PUSH1 0xA0 SHL SUB DUP4 DUP2 AND PUSH1 0x0 SWAP1 DUP2 MSTORE PUSH1 0x1 PUSH1 0x20 SWAP1 DUP2 MSTORE PUSH1 0x40 DUP1 DUP4 KECCAK256 SWAP4 DUP7 AND DUP4 MSTORE SWAP3 SWAP1 MSTORE KECCAK256 SLOAD PUSH32 0xFFFFFFFFFFFFFFFFFFFFFFFFFFFFFFFFFFFFFFFFFFFFFFFFFFFFFFFFFFFFFFFF DUP2 EQ PUSH2 0x94E JUMPI DUP2 DUP2 LT ISZERO PUSH2 0x941 JUMPI PUSH1 0x40 MLOAD PUSH3 0x461BCD PUSH1 0xE5 SHL DUP2 MSTORE PUSH1 0x4 ADD PUSH2 0x621 SWAP1 PUSH2 0x11FE JUMP JUMPDEST PUSH2 0x94E DUP5 DUP5 DUP5 DUP5 SUB PUSH2 0x68A JUMP JUMPDEST PUSH2 0x98D PUSH1 0x40 MLOAD DUP1 PUSH1 0x40 ADD PUSH1 0x40 MSTORE DUP1 PUSH1 0x17 DUP2 MSTORE PUSH1 0x20 ADD PUSH32 0xA205F7370656E64416C6C6F77616E6365206F75743A20000000000000000000 DUP2 MSTORE POP DUP4 PUSH2 0x822 JUMP JUMPDEST POP POP POP POP JUMP JUMPDEST PUSH2 0x9D2 PUSH1 0x40 MLOAD DUP1 PUSH1 0x40 ADD PUSH1 0x40 MSTORE DUP1 PUSH1 0x10 DUP2 MSTORE PUSH1 0x20 ADD PUSH32 0xA205F7472616E7366657220696E3A2000000000000000000000000000000000 DUP2 MSTORE POP DUP3 PUSH2 0x822 JUMP JUMPDEST PUSH1 0x1 PUSH1 0x1 PUSH1 0xA0 SHL SUB DUP4 AND PUSH2 0x9F8 JUMPI PUSH1 0x40 MLOAD PUSH3 0x461BCD PUSH1 0xE5 SHL DUP2 MSTORE PUSH1 0x4 ADD PUSH2 0x621 SWAP1 PUSH2 0x1268 JUMP JUMPDEST PUSH1 0x1 PUSH1 0x1 PUSH1 0xA0 SHL SUB DUP3 AND PUSH2 0xA1E JUMPI PUSH1 0x40 MLOAD PUSH3 0x461BCD PUSH1 0xE5 SHL DUP2 MSTORE PUSH1 0x4 ADD PUSH2 0x621 SWAP1 PUSH2 0x12D2 JUMP JUMPDEST PUSH2 0xA5D PUSH1 0x40 MLOAD DUP1 PUSH1 0x40 ADD PUSH1 0x40 MSTORE DUP1 PUSH1 0x18 DUP2 MSTORE PUSH1 0x20 ADD PUSH32 0xA205F6265666F7265546F6B656E5472616E736665723A200000000000000000 DUP2 MSTORE POP DUP3 PUSH2 0x822 JUMP JUMPDEST PUSH1 0x1 PUSH1 0x1 PUSH1 0xA0 SHL SUB DUP4 AND PUSH1 0x0 SWAP1 DUP2 MSTORE PUSH1 0x20 DUP2 DUP2 MSTORE PUSH1 0x40 SWAP2 DUP3 SWAP1 KECCAK256 SLOAD DUP3 MLOAD DUP1 DUP5 ADD SWAP1 SWAP4 MSTORE PUSH1 0x16 DUP4 MSTORE PUSH32 0xA206265666F72652066726F6D42616C616E63653A2000000000000000000000 SWAP2 DUP4 ADD SWAP2 SWAP1 SWAP2 MSTORE SWAP1 PUSH2 0xAB7 SWAP1 DUP3 PUSH2 0x822 JUMP JUMPDEST DUP2 DUP2 LT ISZERO PUSH2 0xAD7 JUMPI PUSH1 0x40 MLOAD PUSH3 0x461BCD PUSH1 0xE5 SHL DUP2 MSTORE PUSH1 0x4 ADD PUSH2 0x621 SWAP1 PUSH2 0x133C JUMP JUMPDEST PUSH2 0xB16 PUSH1 0x40 MLOAD DUP1 PUSH1 0x40 ADD PUSH1 0x40 MSTORE DUP1 PUSH1 0x15 DUP2 MSTORE PUSH1 0x20 ADD PUSH32 0xA2061667465722066726F6D42616C616E63653A200000000000000000000000 DUP2 MSTORE POP DUP4 PUSH2 0x822 JUMP JUMPDEST PUSH1 0x1 PUSH1 0x1 PUSH1 0xA0 SHL SUB DUP1 DUP6 AND PUSH1 0x0 SWAP1 DUP2 MSTORE PUSH1 0x20 DUP2 DUP2 MSTORE PUSH1 0x40 DUP1 DUP4 KECCAK256 DUP7 DUP7 SUB SWAP1 SSTORE SWAP3 DUP7 AND DUP3 MSTORE SWAP1 DUP3 SWAP1 KECCAK256 DUP1 SLOAD DUP6 ADD SWAP1 SSTORE DUP2 MLOAD DUP1 DUP4 ADD SWAP1 SWAP3 MSTORE PUSH1 0x17 DUP3 MSTORE PUSH32 0xA205F6166746572546F6B656E5472616E736665723A20000000000000000000 SWAP1 DUP3 ADD MSTORE PUSH2 0xB7F SWAP1 DUP4 PUSH2 0x822 JUMP JUMPDEST DUP3 PUSH1 0x1 PUSH1 0x1 PUSH1 0xA0 SHL SUB AND DUP5 PUSH1 0x1 PUSH1 0x1 PUSH1 0xA0 SHL SUB AND PUSH32 0xDDF252AD1BE2C89B69C2B068FC378DAA952BA7F163C4A11628F55A4DF523B3EF DUP5 PUSH1 0x40 MLOAD PUSH2 0xBC2 SWAP2 SWAP1 PUSH2 0xE57 JUMP JUMPDEST PUSH1 0x40 MLOAD DUP1 SWAP2 SUB SWAP1 LOG3 PUSH2 0x98D PUSH1 0x40 MLOAD DUP1 PUSH1 0x40 ADD PUSH1 0x40 MSTORE DUP1 PUSH1 0x11 DUP2 MSTORE PUSH1 0x20 ADD PUSH32 0xA205F7472616E73666572206F75743A20000000000000000000000000000000 DUP2 MSTORE POP DUP4 PUSH2 0x822 JUMP JUMPDEST PUSH1 0x5 SLOAD PUSH1 0x1 PUSH1 0x1 PUSH1 0xA0 SHL SUB AND CALLER EQ PUSH2 0x5C9 JUMPI PUSH1 0x40 MLOAD PUSH3 0x461BCD PUSH1 0xE5 SHL DUP2 MSTORE PUSH1 0x4 ADD PUSH2 0x621 SWAP1 PUSH2 0x137E JUMP JUMPDEST PUSH1 0x1 PUSH1 0x1 PUSH1 0xA0 SHL SUB DUP3 AND PUSH2 0xC59 JUMPI PUSH1 0x40 MLOAD PUSH3 0x461BCD PUSH1 0xE5 SHL DUP2 MSTORE PUSH1 0x4 ADD PUSH2 0x621 SWAP1 PUSH2 0x13C2 JUMP JUMPDEST DUP1 PUSH1 0x2 PUSH1 0x0 DUP3 DUP3 SLOAD PUSH2 0xC6B SWAP2 SWAP1 PUSH2 0xFC9 JUMP JUMPDEST SWAP1 SWAP2 SSTORE POP POP PUSH1 0x1 PUSH1 0x1 PUSH1 0xA0 SHL SUB DUP3 AND PUSH1 0x0 DUP2 DUP2 MSTORE PUSH1 0x20 DUP2 SWAP1 MSTORE PUSH1 0x40 DUP1 DUP3 KECCAK256 DUP1 SLOAD DUP6 ADD SWAP1 SSTORE MLOAD PUSH32 0xDDF252AD1BE2C89B69C2B068FC378DAA952BA7F163C4A11628F55A4DF523B3EF SWAP1 PUSH2 0xCBD SWAP1 DUP6 SWAP1 PUSH2 0xE57 JUMP JUMPDEST PUSH1 0x40 MLOAD DUP1 SWAP2 SUB SWAP1 LOG3 POP POP JUMP JUMPDEST PUSH1 0x5 DUP1 SLOAD PUSH1 0x1 PUSH1 0x1 PUSH1 0xA0 SHL SUB DUP4 DUP2 AND PUSH32 0xFFFFFFFFFFFFFFFFFFFFFFFF0000000000000000000000000000000000000000 DUP4 AND DUP2 OR SWAP1 SWAP4 SSTORE PUSH1 0x40 MLOAD SWAP2 AND SWAP2 SWAP1 DUP3 SWAP1 PUSH32 0x8BE0079C531659141344CD1FD0A4F28419497F9722A3DAAFE3B4186F6B6457E0 SWAP1 PUSH1 0x0 SWAP1 LOG3 POP POP JUMP JUMPDEST DUP1 MLOAD PUSH11 0x636F6E736F6C652E6C6F67 PUSH1 0x20 DUP4 ADD PUSH1 0x0 DUP1 DUP5 DUP4 DUP6 GAS STATICCALL POP POP POP POP POP JUMP JUMPDEST PUSH1 0x0 JUMPDEST DUP4 DUP2 LT ISZERO PUSH2 0xD6F JUMPI DUP2 DUP2 ADD MLOAD DUP4 DUP3 ADD MSTORE PUSH1 0x20 ADD PUSH2 0xD57 JUMP JUMPDEST POP POP PUSH1 0x0 SWAP2 ADD MSTORE JUMP JUMPDEST PUSH1 0x0 PUSH2 0xD82 DUP3 MLOAD SWAP1 JUMP JUMPDEST DUP1 DUP5 MSTORE PUSH1 0x20 DUP5 ADD SWAP4 POP PUSH2 0xD99 DUP2 DUP6 PUSH1 0x20 DUP7 ADD PUSH2 0xD54 JUMP JUMPDEST PUSH1 0x1F ADD PUSH1 0x1F NOT AND SWAP3 SWAP1 SWAP3 ADD SWAP3 SWAP2 POP POP JUMP JUMPDEST PUSH1 0x20 DUP1 DUP3 MSTORE DUP2 ADD PUSH2 0x55B DUP2 DUP5 PUSH2 0xD78 JUMP JUMPDEST PUSH1 0x0 PUSH1 0x1 PUSH1 0x1 PUSH1 0xA0 SHL SUB DUP3 AND PUSH2 0x2FD JUMP JUMPDEST PUSH2 0xDD5 DUP2 PUSH2 0xDBB JUMP JUMPDEST DUP2 EQ PUSH2 0x687 JUMPI PUSH1 0x0 DUP1 REVERT JUMPDEST DUP1 CALLDATALOAD PUSH2 0x2FD DUP2 PUSH2 0xDCC JUMP JUMPDEST DUP1 PUSH2 0xDD5 JUMP JUMPDEST DUP1 CALLDATALOAD PUSH2 0x2FD DUP2 PUSH2 0xDEB JUMP JUMPDEST PUSH1 0x0 DUP1 PUSH1 0x40 DUP4 DUP6 SUB SLT ISZERO PUSH2 0xE12 JUMPI PUSH2 0xE12 PUSH1 0x0 DUP1 REVERT JUMPDEST PUSH1 0x0 PUSH2 0xE1E DUP6 DUP6 PUSH2 0xDE0 JUMP JUMPDEST SWAP3 POP POP PUSH1 0x20 PUSH2 0xE2F DUP6 DUP3 DUP7 ADD PUSH2 0xDF1 JUMP JUMPDEST SWAP2 POP POP SWAP3 POP SWAP3 SWAP1 POP JUMP JUMPDEST DUP1 ISZERO ISZERO JUMPDEST DUP3 MSTORE POP POP JUMP JUMPDEST PUSH1 0x20 DUP2 ADD PUSH2 0x2FD DUP3 DUP5 PUSH2 0xE39 JUMP JUMPDEST DUP1 PUSH2 0xE3D JUMP JUMPDEST PUSH1 0x20 DUP2 ADD PUSH2 0x2FD DUP3 DUP5 PUSH2 0xE51 JUMP JUMPDEST PUSH1 0x0 DUP1 PUSH1 0x0 PUSH1 0x60 DUP5 DUP7 SUB SLT ISZERO PUSH2 0xE7D JUMPI PUSH2 0xE7D PUSH1 0x0 DUP1 REVERT JUMPDEST PUSH1 0x0 PUSH2 0xE89 DUP7 DUP7 PUSH2 0xDE0 JUMP JUMPDEST SWAP4 POP POP PUSH1 0x20 PUSH2 0xE9A DUP7 DUP3 DUP8 ADD PUSH2 0xDE0 JUMP JUMPDEST SWAP3 POP POP PUSH1 0x40 PUSH2 0xEAB DUP7 DUP3 DUP8 ADD PUSH2 0xDF1 JUMP JUMPDEST SWAP2 POP POP SWAP3 POP SWAP3 POP SWAP3 JUMP JUMPDEST PUSH1 0xFF DUP2 AND PUSH2 0xE3D JUMP JUMPDEST PUSH1 0x20 DUP2 ADD PUSH2 0x2FD DUP3 DUP5 PUSH2 0xEB5 JUMP JUMPDEST PUSH1 0x0 PUSH1 0x20 DUP3 DUP5 SUB SLT ISZERO PUSH2 0xEE1 JUMPI PUSH2 0xEE1 PUSH1 0x0 DUP1 REVERT JUMPDEST PUSH1 0x0 PUSH2 0xEED DUP5 DUP5 PUSH2 0xDE0 JUMP JUMPDEST SWAP5 SWAP4 POP POP POP POP JUMP JUMPDEST PUSH2 0xE3D DUP2 PUSH2 0xDBB JUMP JUMPDEST PUSH1 0x20 DUP2 ADD PUSH2 0x2FD DUP3 DUP5 PUSH2 0xEF5 JUMP JUMPDEST PUSH1 0x0 DUP1 PUSH1 0x40 DUP4 DUP6 SUB SLT ISZERO PUSH2 0xF22 JUMPI PUSH2 0xF22 PUSH1 0x0 DUP1 REVERT JUMPDEST PUSH1 0x0 PUSH2 0xF2E DUP6 DUP6 PUSH2 0xDE0 JUMP JUMPDEST SWAP3 POP POP PUSH1 0x20 PUSH2 0xE2F DUP6 DUP3 DUP7 ADD PUSH2 0xDE0 JUMP JUMPDEST PUSH32 0x4E487B7100000000000000000000000000000000000000000000000000000000 PUSH1 0x0 MSTORE PUSH1 0x22 PUSH1 0x4 MSTORE PUSH1 0x24 PUSH1 0x0 REVERT JUMPDEST PUSH1 0x2 DUP2 DIV PUSH1 0x1 DUP3 AND DUP1 PUSH2 0xF82 JUMPI PUSH1 0x7F DUP3 AND SWAP2 POP JUMPDEST PUSH1 0x20 DUP3 LT DUP2 SUB PUSH2 0xF94 JUMPI PUSH2 0xF94 PUSH2 0xF3F JUMP JUMPDEST POP SWAP2 SWAP1 POP JUMP JUMPDEST PUSH32 0x4E487B7100000000000000000000000000000000000000000000000000000000 PUSH1 0x0 MSTORE PUSH1 0x11 PUSH1 0x4 MSTORE PUSH1 0x24 PUSH1 0x0 REVERT JUMPDEST DUP1 DUP3 ADD DUP1 DUP3 GT ISZERO PUSH2 0x2FD JUMPI PUSH2 0x2FD PUSH2 0xF9A JUMP JUMPDEST PUSH1 0x25 DUP2 MSTORE PUSH1 0x0 PUSH1 0x20 DUP3 ADD PUSH32 0x45524332303A2064656372656173656420616C6C6F77616E63652062656C6F77 DUP2 MSTORE PUSH32 0x207A65726F000000000000000000000000000000000000000000000000000000 PUSH1 0x20 DUP3 ADD MSTORE SWAP2 POP JUMPDEST POP PUSH1 0x40 ADD SWAP1 JUMP JUMPDEST PUSH1 0x20 DUP1 DUP3 MSTORE DUP2 ADD PUSH2 0x2FD DUP2 PUSH2 0xFDC JUMP JUMPDEST PUSH1 0x26 DUP2 MSTORE PUSH1 0x0 PUSH1 0x20 DUP3 ADD PUSH32 0x4F776E61626C653A206E6577206F776E657220697320746865207A65726F2061 DUP2 MSTORE PUSH32 0x6464726573730000000000000000000000000000000000000000000000000000 PUSH1 0x20 DUP3 ADD MSTORE SWAP2 POP PUSH2 0x1032 JUMP JUMPDEST PUSH1 0x20 DUP1 DUP3 MSTORE DUP2 ADD PUSH2 0x2FD DUP2 PUSH2 0x1049 JUMP JUMPDEST PUSH1 0x24 DUP2 MSTORE PUSH1 0x0 PUSH1 0x20 DUP3 ADD PUSH32 0x45524332303A20617070726F76652066726F6D20746865207A65726F20616464 DUP2 MSTORE PUSH32 0x7265737300000000000000000000000000000000000000000000000000000000 PUSH1 0x20 DUP3 ADD MSTORE SWAP2 POP PUSH2 0x1032 JUMP JUMPDEST PUSH1 0x20 DUP1 DUP3 MSTORE DUP2 ADD PUSH2 0x2FD DUP2 PUSH2 0x10B3 JUMP JUMPDEST PUSH1 0x22 DUP2 MSTORE PUSH1 0x0 PUSH1 0x20 DUP3 ADD PUSH32 0x45524332303A20617070726F766520746F20746865207A65726F206164647265 DUP2 MSTORE PUSH32 0x7373000000000000000000000000000000000000000000000000000000000000 PUSH1 0x20 DUP3 ADD MSTORE SWAP2 POP PUSH2 0x1032 JUMP JUMPDEST PUSH1 0x20 DUP1 DUP3 MSTORE DUP2 ADD PUSH2 0x2FD DUP2 PUSH2 0x111D JUMP JUMPDEST PUSH1 0x40 DUP1 DUP3 MSTORE DUP2 ADD PUSH2 0x1198 DUP2 DUP6 PUSH2 0xD78 JUMP JUMPDEST SWAP1 POP PUSH2 0x55B PUSH1 0x20 DUP4 ADD DUP5 PUSH2 0xEF5 JUMP JUMPDEST PUSH1 0x40 DUP1 DUP3 MSTORE DUP2 ADD PUSH2 0x11B8 DUP2 DUP6 PUSH2 0xD78 JUMP JUMPDEST SWAP1 POP PUSH2 0x55B PUSH1 0x20 DUP4 ADD DUP5 PUSH2 0xE51 JUMP JUMPDEST PUSH1 0x1D DUP2 MSTORE PUSH1 0x0 PUSH1 0x20 DUP3 ADD PUSH32 0x45524332303A20696E73756666696369656E7420616C6C6F77616E6365000000 DUP2 MSTORE SWAP2 POP JUMPDEST POP PUSH1 0x20 ADD SWAP1 JUMP JUMPDEST PUSH1 0x20 DUP1 DUP3 MSTORE DUP2 ADD PUSH2 0x2FD DUP2 PUSH2 0x11C7 JUMP JUMPDEST PUSH1 0x25 DUP2 MSTORE PUSH1 0x0 PUSH1 0x20 DUP3 ADD PUSH32 0x45524332303A207472616E736665722066726F6D20746865207A65726F206164 DUP2 MSTORE PUSH32 0x6472657373000000000000000000000000000000000000000000000000000000 PUSH1 0x20 DUP3 ADD MSTORE SWAP2 POP PUSH2 0x1032 JUMP JUMPDEST PUSH1 0x20 DUP1 DUP3 MSTORE DUP2 ADD PUSH2 0x2FD DUP2 PUSH2 0x120E JUMP JUMPDEST PUSH1 0x23 DUP2 MSTORE PUSH1 0x0 PUSH1 0x20 DUP3 ADD PUSH32 0x45524332303A207472616E7366657220746F20746865207A65726F2061646472 DUP2 MSTORE PUSH32 0x6573730000000000000000000000000000000000000000000000000000000000 PUSH1 0x20 DUP3 ADD MSTORE SWAP2 POP PUSH2 0x1032 JUMP JUMPDEST PUSH1 0x20 DUP1 DUP3 MSTORE DUP2 ADD PUSH2 0x2FD DUP2 PUSH2 0x1278 JUMP JUMPDEST PUSH1 0x26 DUP2 MSTORE PUSH1 0x0 PUSH1 0x20 DUP3 ADD PUSH32 0x45524332303A207472616E7366657220616D6F756E7420657863656564732062 DUP2 MSTORE PUSH32 0x616C616E63650000000000000000000000000000000000000000000000000000 PUSH1 0x20 DUP3 ADD MSTORE SWAP2 POP PUSH2 0x1032 JUMP JUMPDEST PUSH1 0x20 DUP1 DUP3 MSTORE DUP2 ADD PUSH2 0x2FD DUP2 PUSH2 0x12E2 JUMP JUMPDEST PUSH1 0x20 DUP1 DUP3 MSTORE PUSH32 0x4F776E61626C653A2063616C6C6572206973206E6F7420746865206F776E6572 SWAP2 ADD SWAP1 DUP2 MSTORE PUSH1 0x0 PUSH2 0x11F7 JUMP JUMPDEST PUSH1 0x20 DUP1 DUP3 MSTORE DUP2 ADD PUSH2 0x2FD DUP2 PUSH2 0x134C JUMP JUMPDEST PUSH1 0x1F DUP2 MSTORE PUSH1 0x0 PUSH1 0x20 DUP3 ADD PUSH32 0x45524332303A206D696E7420746F20746865207A65726F206164647265737300 DUP2 MSTORE SWAP2 POP PUSH2 0x11F7 JUMP JUMPDEST PUSH1 0x20 DUP1 DUP3 MSTORE DUP2 ADD PUSH2 0x2FD DUP2 PUSH2 0x138E JUMP INVALID LOG2 PUSH5 0x6970667358 0x22 SLT KECCAK256 0x2D SUB NUMBER SWAP5 0xBB BLOCKHASH SSTORE CREATE RETURNDATACOPY 0x28 EXTCODEHASH 0xC2 0x2F 0xDD PUSH25 0x9F31BD2E7FF4E0DA0284B730B7B79D60D364736F6C63430008 GT STOP CALLER "},"methodIdentifiers":{"allowance(address,address)":"dd62ed3e","approve(address,uint256)":"095ea7b3","balanceOf(address)":"70a08231","decimals()":"313ce567","decreaseAllowance(address,uint256)":"a457c2d7","increaseAllowance(address,uint256)":"39509351","mint(address,uint256)":"40c10f19","name()":"06fdde03","owner()":"8da5cb5b","renounceOwnership()":"715018a6","symbol()":"95d89b41","totalSupply()":"18160ddd","transfer(address,uint256)":"a9059cbb","transferFrom(address,address,uint256)":"23b872dd","transferOwnership(address)":"f2fde38b"}}}}}