{
  "_format": "hh-sol-artifact-1",
  "contractName": "UsdCoin",
  "sourceName": "contracts/UsdCoin.sol",
  "abi": [
    {
      "inputs": [],
      "stateMutability": "nonpayable",
      "type": "constructor"
    },
    {
      "anonymous": false,
      "inputs": [
        {
          "indexed": true,
          "internalType": "address",
          "name": "owner",
          "type": "address"
        },
        {
          "indexed": true,
          "internalType": "address",
          "name": "spender",
          "type": "address"
        },
        {
          "indexed": false,
          "internalType": "uint256",
          "name": "value",
          "type": "uint256"
        }
      ],
      "name": "Approval",
      "type": "event"
    },
    {
      "anonymous": false,
      "inputs": [
        {
          "indexed": true,
          "internalType": "address",
          "name": "previousOwner",
          "type": "address"
        },
        {
          "indexed": true,
          "internalType": "address",
          "name": "newOwner",
          "type": "address"
        }
      ],
      "name": "OwnershipTransferred",
      "type": "event"
    },
    {
      "anonymous": false,
      "inputs": [
        {
          "indexed": true,
          "internalType": "address",
          "name": "from",
          "type": "address"
        },
        {
          "indexed": true,
          "internalType": "address",
          "name": "to",
          "type": "address"
        },
        {
          "indexed": false,
          "internalType": "uint256",
          "name": "value",
          "type": "uint256"
        }
      ],
      "name": "Transfer",
      "type": "event"
    },
    {
      "inputs": [
        {
          "internalType": "address",
          "name": "owner",
          "type": "address"
        },
        {
          "internalType": "address",
          "name": "spender",
          "type": "address"
        }
      ],
      "name": "allowance",
      "outputs": [
        {
          "internalType": "uint256",
          "name": "",
          "type": "uint256"
        }
      ],
      "stateMutability": "view",
      "type": "function"
    },
    {
      "inputs": [
        {
          "internalType": "address",
          "name": "spender",
          "type": "address"
        },
        {
          "internalType": "uint256",
          "name": "amount",
          "type": "uint256"
        }
      ],
      "name": "approve",
      "outputs": [
        {
          "internalType": "bool",
          "name": "",
          "type": "bool"
        }
      ],
      "stateMutability": "nonpayable",
      "type": "function"
    },
    {
      "inputs": [
        {
          "internalType": "address",
          "name": "account",
          "type": "address"
        }
      ],
      "name": "balanceOf",
      "outputs": [
        {
          "internalType": "uint256",
          "name": "",
          "type": "uint256"
        }
      ],
      "stateMutability": "view",
      "type": "function"
    },
    {
      "inputs": [],
      "name": "decimals",
      "outputs": [
        {
          "internalType": "uint8",
          "name": "",
          "type": "uint8"
        }
      ],
      "stateMutability": "view",
      "type": "function"
    },
    {
      "inputs": [
        {
          "internalType": "address",
          "name": "spender",
          "type": "address"
        },
        {
          "internalType": "uint256",
          "name": "subtractedValue",
          "type": "uint256"
        }
      ],
      "name": "decreaseAllowance",
      "outputs": [
        {
          "internalType": "bool",
          "name": "",
          "type": "bool"
        }
      ],
      "stateMutability": "nonpayable",
      "type": "function"
    },
    {
      "inputs": [
        {
          "internalType": "address",
          "name": "spender",
          "type": "address"
        },
        {
          "internalType": "uint256",
          "name": "addedValue",
          "type": "uint256"
        }
      ],
      "name": "increaseAllowance",
      "outputs": [
        {
          "internalType": "bool",
          "name": "",
          "type": "bool"
        }
      ],
      "stateMutability": "nonpayable",
      "type": "function"
    },
    {
      "inputs": [
        {
          "internalType": "address",
          "name": "to",
          "type": "address"
        },
        {
          "internalType": "uint256",
          "name": "amount",
          "type": "uint256"
        }
      ],
      "name": "mint",
      "outputs": [],
      "stateMutability": "nonpayable",
      "type": "function"
    },
    {
      "inputs": [],
      "name": "name",
      "outputs": [
        {
          "internalType": "string",
          "name": "",
          "type": "string"
        }
      ],
      "stateMutability": "view",
      "type": "function"
    },
    {
      "inputs": [],
      "name": "owner",
      "outputs": [
        {
          "internalType": "address",
          "name": "",
          "type": "address"
        }
      ],
      "stateMutability": "view",
      "type": "function"
    },
    {
      "inputs": [],
      "name": "renounceOwnership",
      "outputs": [],
      "stateMutability": "nonpayable",
      "type": "function"
    },
    {
      "inputs": [],
      "name": "symbol",
      "outputs": [
        {
          "internalType": "string",
          "name": "",
          "type": "string"
        }
      ],
      "stateMutability": "view",
      "type": "function"
    },
    {
      "inputs": [],
      "name": "totalSupply",
      "outputs": [
        {
          "internalType": "uint256",
          "name": "",
          "type": "uint256"
        }
      ],
      "stateMutability": "view",
      "type": "function"
    },
    {
      "inputs": [
        {
          "internalType": "address",
          "name": "to",
          "type": "address"
        },
        {
          "internalType": "uint256",
          "name": "amount",
          "type": "uint256"
        }
      ],
      "name": "transfer",
      "outputs": [
        {
          "internalType": "bool",
          "name": "",
          "type": "bool"
        }
      ],
      "stateMutability": "nonpayable",
      "type": "function"
    },
    {
      "inputs": [
        {
          "internalType": "address",
          "name": "from",
          "type": "address"
        },
        {
          "internalType": "address",
          "name": "to",
          "type": "address"
        },
        {
          "internalType": "uint256",
          "name": "amount",
          "type": "uint256"
        }
      ],
      "name": "transferFrom",
      "outputs": [
        {
          "internalType": "bool",
          "name": "",
          "type": "bool"
        }
      ],
      "stateMutability": "nonpayable",
      "type": "function"
    },
    {
      "inputs": [
        {
          "internalType": "address",
          "name": "newOwner",
          "type": "address"
        }
      ],
      "name": "transferOwnership",
      "outputs": [],
      "stateMutability": "nonpayable",
      "type": "function"
    }
  ],
  "bytecode": "0x60806040523480156200001157600080fd5b50604051806040016040528060078152602001662ab9b221b7b4b760c91b815250604051806040016040528060048152602001635553444360e01b815250816003908162000060919062000201565b5060046200006f828262000201565b5050506200008c620000866200009260201b60201c565b62000096565b620002d1565b3390565b600580546001600160a01b038381166001600160a01b0319831681179093556040519116919082907f8be0079c531659141344cd1fd0a4f28419497f9722a3daafe3b4186f6b6457e090600090a35050565b634e487b7160e01b600052604160045260246000fd5b634e487b7160e01b600052602260045260246000fd5b6002810460018216806200012957607f821691505b6020821081036200013e576200013e620000fe565b50919050565b600062000155620001528381565b90565b92915050565b620001668362000144565b81546008840282811b60001990911b908116901990911617825550505050565b6000620001958184846200015b565b505050565b81811015620001b957620001b060008262000186565b6001016200019a565b5050565b601f82111562000195576000818152602090206020601f85010481016020851015620001e65750805b620001fa6020601f8601048301826200019a565b5050505050565b81516001600160401b038111156200021d576200021d620000e8565b62000229825462000114565b62000236828285620001bd565b6020601f8311600181146200026d5760008415620002545750858201515b600019600886021c1981166002860217865550620002c9565b600085815260208120601f198616915b828110156200029f57888501518255602094850194600190920191016200027d565b86831015620002bc5784890151600019601f89166008021c191682555b6001600288020188555050505b505050505050565b61140880620002e16000396000f3fe608060405234801561001057600080fd5b50600436106100f55760003560e01c806370a0823111610097578063a457c2d711610066578063a457c2d7146101e5578063a9059cbb146101f8578063dd62ed3e1461020b578063f2fde38b1461024457600080fd5b806370a0823114610193578063715018a6146101bc5780638da5cb5b146101c457806395d89b41146101dd57600080fd5b806323b872dd116100d357806323b872dd14610149578063313ce5671461015c578063395093511461016b57806340c10f191461017e57600080fd5b806306fdde03146100fa578063095ea7b31461011857806318160ddd14610138575b600080fd5b610102610257565b60405161010f9190610daa565b60405180910390f35b61012b610126366004610dfc565b6102e9565b60405161010f9190610e43565b6002545b60405161010f9190610e57565b61012b610157366004610e65565b610303565b601260405161010f9190610ebe565b61012b610179366004610dfc565b610562565b61019161018c366004610dfc565b6105a1565b005b61013c6101a1366004610ecc565b6001600160a01b031660009081526020819052604090205490565b6101916105b7565b6005546001600160a01b031660405161010f9190610efe565b6101026105cb565b61012b6101f3366004610dfc565b6105da565b61012b610206366004610dfc565b610642565b61013c610219366004610f0c565b6001600160a01b03918216600090815260016020908152604080832093909416825291909152205490565b610191610252366004610ecc565b610650565b60606003805461026690610f6e565b80601f016020809104026020016040519081016040528092919081815260200182805461029290610f6e565b80156102df5780601f106102b4576101008083540402835291602001916102df565b820191906000526020600020905b8154815290600101906020018083116102c257829003601f168201915b5050505050905090565b6000336102f781858561068a565b60019150505b92915050565b60006103436040518060400160405280600a81526020017f0a0a0a0a2063616c6c3a0000000000000000000000000000000000000000000081525061073e565b6103826040518060400160405280601181526020017f0a20616464726573732874686973293a20000000000000000000000000000000815250306107af565b6103c16040518060400160405280600e81526020017f0a206d73672e73656e6465723a20000000000000000000000000000000000000815250336107af565b6104006040518060400160405280600881526020017f0a2066726f6d3a20000000000000000000000000000000000000000000000000815250856107af565b6104636040518060400160405280601081526020017f0a2066726f6d2062616c616e63653a2000000000000000000000000000000000815250600080876001600160a01b03166001600160a01b0316815260200190815260200160002054610822565b6104c06040518060400160405280601081526020017f0a2066726f6d2062616c616e63653a20000000000000000000000000000000008152506104bb866001600160a01b031660009081526020819052604090205490565b610822565b6104ff6040518060400160405280600681526020017f0a20746f3a200000000000000000000000000000000000000000000000000000815250846107af565b61053e6040518060400160405280600a81526020017f0a20616d6f756e743a200000000000000000000000000000000000000000000081525083610822565b3361054a858285610895565b610555858585610993565b60019150505b9392505050565b3360008181526001602090815260408083206001600160a01b03871684529091528120549091906102f7908290869061059c908790610fc9565b61068a565b6105a9610c09565b6105b38282610c33565b5050565b6105bf610c09565b6105c96000610cc9565b565b60606004805461026690610f6e565b3360008181526001602090815260408083206001600160a01b03871684529091528120549091908381101561062a5760405162461bcd60e51b815260040161062190611039565b60405180910390fd5b610637828686840361068a565b506001949350505050565b6000336102f7818585610993565b610658610c09565b6001600160a01b03811661067e5760405162461bcd60e51b8152600401610621906110a3565b61068781610cc9565b50565b6001600160a01b0383166106b05760405162461bcd60e51b81526004016106219061110d565b6001600160a01b0382166106d65760405162461bcd60e51b815260040161062190611177565b6001600160a01b0380841660008181526001602090815260408083209487168084529490915290819020849055517f8c5be1e5ebec7d5bd14f71427d1e84f3dd0314c0f7b2291e5b200ac8c7c3b92590610731908590610e57565b60405180910390a3505050565b610687816040516024016107529190610daa565b60408051601f198184030181529190526020810180517bffffffffffffffffffffffffffffffffffffffffffffffffffffffff167f41304fac00000000000000000000000000000000000000000000000000000000179052610d33565b6105b382826040516024016107c5929190611187565b60408051601f198184030181529190526020810180517bffffffffffffffffffffffffffffffffffffffffffffffffffffffff167f319af33300000000000000000000000000000000000000000000000000000000179052610d33565b6105b382826040516024016108389291906111a7565b60408051601f198184030181529190526020810180517bffffffffffffffffffffffffffffffffffffffffffffffffffffffff167fb60e72cc00000000000000000000000000000000000000000000000000000000179052610d33565b6108d46040518060400160405280601681526020017f0a205f7370656e64416c6c6f77616e636520696e3a200000000000000000000081525082610822565b6001600160a01b038381166000908152600160209081526040808320938616835292905220547fffffffffffffffffffffffffffffffffffffffffffffffffffffffffffffffff811461094e57818110156109415760405162461bcd60e51b8152600401610621906111fe565b61094e848484840361068a565b61098d6040518060400160405280601781526020017f0a205f7370656e64416c6c6f77616e6365206f75743a2000000000000000000081525083610822565b50505050565b6109d26040518060400160405280601081526020017f0a205f7472616e7366657220696e3a200000000000000000000000000000000081525082610822565b6001600160a01b0383166109f85760405162461bcd60e51b815260040161062190611268565b6001600160a01b038216610a1e5760405162461bcd60e51b8152600401610621906112d2565b610a5d6040518060400160405280601881526020017f0a205f6265666f7265546f6b656e5472616e736665723a20000000000000000081525082610822565b6001600160a01b03831660009081526020818152604091829020548251808401909352601683527f0a206265666f72652066726f6d42616c616e63653a20000000000000000000009183019190915290610ab79082610822565b81811015610ad75760405162461bcd60e51b81526004016106219061133c565b610b166040518060400160405280601581526020017f0a2061667465722066726f6d42616c616e63653a20000000000000000000000081525083610822565b6001600160a01b0380851660009081526020818152604080832086860390559286168252908290208054850190558151808301909252601782527f0a205f6166746572546f6b656e5472616e736665723a2000000000000000000090820152610b7f9083610822565b826001600160a01b0316846001600160a01b03167fddf252ad1be2c89b69c2b068fc378daa952ba7f163c4a11628f55a4df523b3ef84604051610bc29190610e57565b60405180910390a361098d6040518060400160405280601181526020017f0a205f7472616e73666572206f75743a2000000000000000000000000000000081525083610822565b6005546001600160a01b031633146105c95760405162461bcd60e51b81526004016106219061137e565b6001600160a01b038216610c595760405162461bcd60e51b8152600401610621906113c2565b8060026000828254610c6b9190610fc9565b90915550506001600160a01b038216600081815260208190526040808220805485019055517fddf252ad1be2c89b69c2b068fc378daa952ba7f163c4a11628f55a4df523b3ef90610cbd908590610e57565b60405180910390a35050565b600580546001600160a01b038381167fffffffffffffffffffffffff0000000000000000000000000000000000000000831681179093556040519116919082907f8be0079c531659141344cd1fd0a4f28419497f9722a3daafe3b4186f6b6457e090600090a35050565b80516a636f6e736f6c652e6c6f67602083016000808483855afa5050505050565b60005b83811015610d6f578181015183820152602001610d57565b50506000910152565b6000610d82825190565b808452602084019350610d99818560208601610d54565b601f01601f19169290920192915050565b6020808252810161055b8184610d78565b60006001600160a01b0382166102fd565b610dd581610dbb565b811461068757600080fd5b80356102fd81610dcc565b80610dd5565b80356102fd81610deb565b60008060408385031215610e1257610e12600080fd5b6000610e1e8585610de0565b9250506020610e2f85828601610df1565b9150509250929050565b8015155b82525050565b602081016102fd8284610e39565b80610e3d565b602081016102fd8284610e51565b600080600060608486031215610e7d57610e7d600080fd5b6000610e898686610de0565b9350506020610e9a86828701610de0565b9250506040610eab86828701610df1565b9150509250925092565b60ff8116610e3d565b602081016102fd8284610eb5565b600060208284031215610ee157610ee1600080fd5b6000610eed8484610de0565b949350505050565b610e3d81610dbb565b602081016102fd8284610ef5565b60008060408385031215610f2257610f22600080fd5b6000610f2e8585610de0565b9250506020610e2f85828601610de0565b7f4e487b7100000000000000000000000000000000000000000000000000000000600052602260045260246000fd5b600281046001821680610f8257607f821691505b602082108103610f9457610f94610f3f565b50919050565b7f4e487b7100000000000000000000000000000000000000000000000000000000600052601160045260246000fd5b808201808211156102fd576102fd610f9a565b602581526000602082017f45524332303a2064656372656173656420616c6c6f77616e63652062656c6f7781527f207a65726f000000000000000000000000000000000000000000000000000000602082015291505b5060400190565b602080825281016102fd81610fdc565b602681526000602082017f4f776e61626c653a206e6577206f776e657220697320746865207a65726f206181527f646472657373000000000000000000000000000000000000000000000000000060208201529150611032565b602080825281016102fd81611049565b602481526000602082017f45524332303a20617070726f76652066726f6d20746865207a65726f2061646481527f726573730000000000000000000000000000000000000000000000000000000060208201529150611032565b602080825281016102fd816110b3565b602281526000602082017f45524332303a20617070726f766520746f20746865207a65726f20616464726581527f737300000000000000000000000000000000000000000000000000000000000060208201529150611032565b602080825281016102fd8161111d565b604080825281016111988185610d78565b905061055b6020830184610ef5565b604080825281016111b88185610d78565b905061055b6020830184610e51565b601d81526000602082017f45524332303a20696e73756666696369656e7420616c6c6f77616e6365000000815291505b5060200190565b602080825281016102fd816111c7565b602581526000602082017f45524332303a207472616e736665722066726f6d20746865207a65726f20616481527f647265737300000000000000000000000000000000000000000000000000000060208201529150611032565b602080825281016102fd8161120e565b602381526000602082017f45524332303a207472616e7366657220746f20746865207a65726f206164647281527f657373000000000000000000000000000000000000000000000000000000000060208201529150611032565b602080825281016102fd81611278565b602681526000602082017f45524332303a207472616e7366657220616d6f756e742065786365656473206281527f616c616e6365000000000000000000000000000000000000000000000000000060208201529150611032565b602080825281016102fd816112e2565b60208082527f4f776e61626c653a2063616c6c6572206973206e6f7420746865206f776e6572910190815260006111f7565b602080825281016102fd8161134c565b601f81526000602082017f45524332303a206d696e7420746f20746865207a65726f206164647265737300815291506111f7565b602080825281016102fd8161138e56fea264697066735822122046dea576cd851a91f1d06813e8aa803144c74cd4abe987eedc79504c04a24ac764736f6c63430008110033",
  "linkReferences": {},
  "deployedLinkReferences": {}
}